{
  "address": "0x71F414266cc0044D0043B310DE94d488F4d3e2DA",
  "abi": [
    {
      "inputs": [
        {
          "internalType": "address",
          "name": "_endpoint",
          "type": "address"
        },
        {
          "internalType": "address",
          "name": "_owner",
          "type": "address"
        }
      ],
      "stateMutability": "nonpayable",
      "type": "constructor"
    },
    {
      "inputs": [],
      "name": "InvalidDelegate",
      "type": "error"
    },
    {
      "inputs": [],
      "name": "InvalidEndpointCall",
      "type": "error"
    },
    {
      "inputs": [
        {
          "internalType": "bytes",
          "name": "options",
          "type": "bytes"
        }
      ],
      "name": "InvalidOptions",
      "type": "error"
    },
    {
      "inputs": [],
      "name": "LzTokenUnavailable",
      "type": "error"
    },
    {
      "inputs": [
        {
          "internalType": "uint32",
          "name": "eid",
          "type": "uint32"
        }
      ],
      "name": "NoPeer",
      "type": "error"
    },
    {
      "inputs": [
        {
          "internalType": "uint256",
          "name": "msgValue",
          "type": "uint256"
        }
      ],
      "name": "NotEnoughNative",
      "type": "error"
    },
    {
      "inputs": [
        {
          "internalType": "address",
          "name": "addr",
          "type": "address"
        }
      ],
      "name": "OnlyEndpoint",
      "type": "error"
    },
    {
      "inputs": [
        {
          "internalType": "uint32",
          "name": "eid",
          "type": "uint32"
        },
        {
          "internalType": "bytes32",
          "name": "sender",
          "type": "bytes32"
        }
      ],
      "name": "OnlyPeer",
      "type": "error"
    },
    {
      "inputs": [
        {
          "internalType": "address",
          "name": "owner",
          "type": "address"
        }
      ],
      "name": "OwnableInvalidOwner",
      "type": "error"
    },
    {
      "inputs": [
        {
          "internalType": "address",
          "name": "account",
          "type": "address"
        }
      ],
      "name": "OwnableUnauthorizedAccount",
      "type": "error"
    },
    {
      "inputs": [
        {
          "internalType": "address",
          "name": "token",
          "type": "address"
        }
      ],
      "name": "SafeERC20FailedOperation",
      "type": "error"
    },
    {
      "anonymous": false,
      "inputs": [
        {
          "indexed": true,
          "internalType": "uint8",
          "name": "attacker",
          "type": "uint8"
        },
        {
          "indexed": true,
          "internalType": "uint8",
          "name": "defender",
          "type": "uint8"
        },
        {
          "indexed": false,
          "internalType": "uint8",
          "name": "damage",
          "type": "uint8"
        }
      ],
      "name": "DamageDealt",
      "type": "event"
    },
    {
      "anonymous": false,
      "inputs": [
        {
          "components": [
            {
              "internalType": "uint32",
              "name": "eid",
              "type": "uint32"
            },
            {
              "internalType": "uint16",
              "name": "msgType",
              "type": "uint16"
            },
            {
              "internalType": "bytes",
              "name": "options",
              "type": "bytes"
            }
          ],
          "indexed": false,
          "internalType": "struct EnforcedOptionParam[]",
          "name": "_enforcedOptions",
          "type": "tuple[]"
        }
      ],
      "name": "EnforcedOptionSet",
      "type": "event"
    },
    {
      "anonymous": false,
      "inputs": [
        {
          "indexed": true,
          "internalType": "uint8",
          "name": "winner",
          "type": "uint8"
        },
        {
          "indexed": false,
          "internalType": "uint8",
          "name": "finalHealth",
          "type": "uint8"
        }
      ],
      "name": "GameEnded",
      "type": "event"
    },
    {
      "anonymous": false,
      "inputs": [
        {
          "indexed": false,
          "internalType": "uint8",
          "name": "player1Health",
          "type": "uint8"
        },
        {
          "indexed": false,
          "internalType": "uint8",
          "name": "player2Health",
          "type": "uint8"
        }
      ],
      "name": "GameStarted",
      "type": "event"
    },
    {
      "anonymous": false,
      "inputs": [
        {
          "indexed": true,
          "internalType": "address",
          "name": "previousOwner",
          "type": "address"
        },
        {
          "indexed": true,
          "internalType": "address",
          "name": "newOwner",
          "type": "address"
        }
      ],
      "name": "OwnershipTransferred",
      "type": "event"
    },
    {
      "anonymous": false,
      "inputs": [
        {
          "indexed": false,
          "internalType": "uint32",
          "name": "eid",
          "type": "uint32"
        },
        {
          "indexed": false,
          "internalType": "bytes32",
          "name": "peer",
          "type": "bytes32"
        }
      ],
      "name": "PeerSet",
      "type": "event"
    },
    {
      "anonymous": false,
      "inputs": [
        {
          "indexed": true,
          "internalType": "uint8",
          "name": "playerId",
          "type": "uint8"
        },
        {
          "indexed": true,
          "internalType": "uint8",
          "name": "round",
          "type": "uint8"
        },
        {
          "indexed": false,
          "internalType": "uint8",
          "name": "zones",
          "type": "uint8"
        }
      ],
      "name": "PlayerActionReceived",
      "type": "event"
    },
    {
      "anonymous": false,
      "inputs": [
        {
          "indexed": true,
          "internalType": "uint8",
          "name": "playerId",
          "type": "uint8"
        },
        {
          "indexed": false,
          "internalType": "uint8",
          "name": "oldHealth",
          "type": "uint8"
        },
        {
          "indexed": false,
          "internalType": "uint8",
          "name": "newHealth",
          "type": "uint8"
        }
      ],
      "name": "PlayerHealthUpdated",
      "type": "event"
    },
    {
      "anonymous": false,
      "inputs": [
        {
          "indexed": true,
          "internalType": "uint8",
          "name": "round",
          "type": "uint8"
        },
        {
          "indexed": false,
          "internalType": "bool",
          "name": "player1Complete",
          "type": "bool"
        },
        {
          "indexed": false,
          "internalType": "bool",
          "name": "player2Complete",
          "type": "bool"
        }
      ],
      "name": "RoundCompleted",
      "type": "event"
    },
    {
      "inputs": [],
      "name": "MAX_HEALTH",
      "outputs": [
        {
          "internalType": "uint8",
          "name": "",
          "type": "uint8"
        }
      ],
      "stateMutability": "view",
      "type": "function"
    },
    {
      "inputs": [],
      "name": "SEND",
      "outputs": [
        {
          "internalType": "uint16",
          "name": "",
          "type": "uint16"
        }
      ],
      "stateMutability": "view",
      "type": "function"
    },
    {
      "inputs": [
        {
          "components": [
            {
              "internalType": "uint32",
              "name": "srcEid",
              "type": "uint32"
            },
            {
              "internalType": "bytes32",
              "name": "sender",
              "type": "bytes32"
            },
            {
              "internalType": "uint64",
              "name": "nonce",
              "type": "uint64"
            }
          ],
          "internalType": "struct Origin",
          "name": "origin",
          "type": "tuple"
        }
      ],
      "name": "allowInitializePath",
      "outputs": [
        {
          "internalType": "bool",
          "name": "",
          "type": "bool"
        }
      ],
      "stateMutability": "view",
      "type": "function"
    },
    {
      "inputs": [
        {
          "internalType": "uint32",
          "name": "_eid",
          "type": "uint32"
        },
        {
          "internalType": "uint16",
          "name": "_msgType",
          "type": "uint16"
        },
        {
          "internalType": "bytes",
          "name": "_extraOptions",
          "type": "bytes"
        }
      ],
      "name": "combineOptions",
      "outputs": [
        {
          "internalType": "bytes",
          "name": "",
          "type": "bytes"
        }
      ],
      "stateMutability": "view",
      "type": "function"
    },
    {
      "inputs": [],
      "name": "currentRound",
      "outputs": [
        {
          "internalType": "uint8",
          "name": "",
          "type": "uint8"
        }
      ],
      "stateMutability": "view",
      "type": "function"
    },
    {
      "inputs": [],
      "name": "endpoint",
      "outputs": [
        {
          "internalType": "contract ILayerZeroEndpointV2",
          "name": "",
          "type": "address"
        }
      ],
      "stateMutability": "view",
      "type": "function"
    },
    {
      "inputs": [
        {
          "internalType": "uint32",
          "name": "eid",
          "type": "uint32"
        },
        {
          "internalType": "uint16",
          "name": "msgType",
          "type": "uint16"
        }
      ],
      "name": "enforcedOptions",
      "outputs": [
        {
          "internalType": "bytes",
          "name": "enforcedOption",
          "type": "bytes"
        }
      ],
      "stateMutability": "view",
      "type": "function"
    },
    {
      "inputs": [],
      "name": "gameActive",
      "outputs": [
        {
          "internalType": "bool",
          "name": "",
          "type": "bool"
        }
      ],
      "stateMutability": "view",
      "type": "function"
    },
    {
      "inputs": [],
      "name": "getGameState",
      "outputs": [
        {
          "internalType": "bool",
          "name": "active",
          "type": "bool"
        },
        {
          "internalType": "uint8",
          "name": "round",
          "type": "uint8"
        },
        {
          "internalType": "uint8",
          "name": "player1Health",
          "type": "uint8"
        },
        {
          "internalType": "uint8",
          "name": "player2Health",
          "type": "uint8"
        },
        {
          "internalType": "uint8",
          "name": "player1Attack",
          "type": "uint8"
        },
        {
          "internalType": "uint8",
          "name": "player1Defense",
          "type": "uint8"
        },
        {
          "internalType": "uint8",
          "name": "player2Attack",
          "type": "uint8"
        },
        {
          "internalType": "uint8",
          "name": "player2Defense",
          "type": "uint8"
        },
        {
          "internalType": "address",
          "name": "gameWinner",
          "type": "address"
        }
      ],
      "stateMutability": "view",
      "type": "function"
    },
    {
      "inputs": [
        {
          "components": [
            {
              "internalType": "uint32",
              "name": "srcEid",
              "type": "uint32"
            },
            {
              "internalType": "bytes32",
              "name": "sender",
              "type": "bytes32"
            },
            {
              "internalType": "uint64",
              "name": "nonce",
              "type": "uint64"
            }
          ],
          "internalType": "struct Origin",
          "name": "",
          "type": "tuple"
        },
        {
          "internalType": "bytes",
          "name": "",
          "type": "bytes"
        },
        {
          "internalType": "address",
          "name": "_sender",
          "type": "address"
        }
      ],
      "name": "isComposeMsgSender",
      "outputs": [
        {
          "internalType": "bool",
          "name": "",
          "type": "bool"
        }
      ],
      "stateMutability": "view",
      "type": "function"
    },
    {
      "inputs": [],
      "name": "lastMessage",
      "outputs": [
        {
          "internalType": "string",
          "name": "",
          "type": "string"
        }
      ],
      "stateMutability": "view",
      "type": "function"
    },
    {
      "inputs": [
        {
          "components": [
            {
              "internalType": "uint32",
              "name": "srcEid",
              "type": "uint32"
            },
            {
              "internalType": "bytes32",
              "name": "sender",
              "type": "bytes32"
            },
            {
              "internalType": "uint64",
              "name": "nonce",
              "type": "uint64"
            }
          ],
          "internalType": "struct Origin",
          "name": "_origin",
          "type": "tuple"
        },
        {
          "internalType": "bytes32",
          "name": "_guid",
          "type": "bytes32"
        },
        {
          "internalType": "bytes",
          "name": "_message",
          "type": "bytes"
        },
        {
          "internalType": "address",
          "name": "_executor",
          "type": "address"
        },
        {
          "internalType": "bytes",
          "name": "_extraData",
          "type": "bytes"
        }
      ],
      "name": "lzReceive",
      "outputs": [],
      "stateMutability": "payable",
      "type": "function"
    },
    {
      "inputs": [
        {
          "internalType": "uint32",
          "name": "",
          "type": "uint32"
        },
        {
          "internalType": "bytes32",
          "name": "",
          "type": "bytes32"
        }
      ],
      "name": "nextNonce",
      "outputs": [
        {
          "internalType": "uint64",
          "name": "nonce",
          "type": "uint64"
        }
      ],
      "stateMutability": "view",
      "type": "function"
    },
    {
      "inputs": [],
      "name": "oAppVersion",
      "outputs": [
        {
          "internalType": "uint64",
          "name": "senderVersion",
          "type": "uint64"
        },
        {
          "internalType": "uint64",
          "name": "receiverVersion",
          "type": "uint64"
        }
      ],
      "stateMutability": "pure",
      "type": "function"
    },
    {
      "inputs": [],
      "name": "owner",
      "outputs": [
        {
          "internalType": "address",
          "name": "",
          "type": "address"
        }
      ],
      "stateMutability": "view",
      "type": "function"
    },
    {
      "inputs": [
        {
          "internalType": "uint32",
          "name": "eid",
          "type": "uint32"
        }
      ],
      "name": "peers",
      "outputs": [
        {
          "internalType": "bytes32",
          "name": "peer",
          "type": "bytes32"
        }
      ],
      "stateMutability": "view",
      "type": "function"
    },
    {
      "inputs": [
        {
          "internalType": "uint8",
          "name": "",
          "type": "uint8"
        }
      ],
      "name": "playerAttackZones",
      "outputs": [
        {
          "internalType": "uint8",
          "name": "",
          "type": "uint8"
        }
      ],
      "stateMutability": "view",
      "type": "function"
    },
    {
      "inputs": [
        {
          "internalType": "uint8",
          "name": "",
          "type": "uint8"
        }
      ],
      "name": "playerDefenseZones",
      "outputs": [
        {
          "internalType": "uint8",
          "name": "",
          "type": "uint8"
        }
      ],
      "stateMutability": "view",
      "type": "function"
    },
    {
      "inputs": [
        {
          "internalType": "uint8",
          "name": "",
          "type": "uint8"
        }
      ],
      "name": "playerHealth",
      "outputs": [
        {
          "internalType": "uint8",
          "name": "",
          "type": "uint8"
        }
      ],
      "stateMutability": "view",
      "type": "function"
    },
    {
      "inputs": [
        {
          "internalType": "uint32",
          "name": "_dstEid",
          "type": "uint32"
        },
        {
          "internalType": "string",
          "name": "_string",
          "type": "string"
        },
        {
          "internalType": "bytes",
          "name": "_options",
          "type": "bytes"
        },
        {
          "internalType": "bool",
          "name": "_payInLzToken",
          "type": "bool"
        }
      ],
      "name": "quoteSendString",
      "outputs": [
        {
          "components": [
            {
              "internalType": "uint256",
              "name": "nativeFee",
              "type": "uint256"
            },
            {
              "internalType": "uint256",
              "name": "lzTokenFee",
              "type": "uint256"
            }
          ],
          "internalType": "struct MessagingFee",
          "name": "fee",
          "type": "tuple"
        }
      ],
      "stateMutability": "view",
      "type": "function"
    },
    {
      "inputs": [],
      "name": "renounceOwnership",
      "outputs": [],
      "stateMutability": "nonpayable",
      "type": "function"
    },
    {
      "inputs": [],
      "name": "resetGame",
      "outputs": [],
      "stateMutability": "nonpayable",
      "type": "function"
    },
    {
      "inputs": [
        {
          "internalType": "uint8",
          "name": "",
          "type": "uint8"
        },
        {
          "internalType": "uint256",
          "name": "",
          "type": "uint256"
        }
      ],
      "name": "roundCompletions",
      "outputs": [
        {
          "internalType": "bool",
          "name": "",
          "type": "bool"
        }
      ],
      "stateMutability": "view",
      "type": "function"
    },
    {
      "inputs": [
        {
          "internalType": "uint32",
          "name": "_dstEid",
          "type": "uint32"
        },
        {
          "internalType": "string",
          "name": "_string",
          "type": "string"
        },
        {
          "internalType": "bytes",
          "name": "_options",
          "type": "bytes"
        }
      ],
      "name": "sendString",
      "outputs": [],
      "stateMutability": "payable",
      "type": "function"
    },
    {
      "inputs": [
        {
          "internalType": "address",
          "name": "_delegate",
          "type": "address"
        }
      ],
      "name": "setDelegate",
      "outputs": [],
      "stateMutability": "nonpayable",
      "type": "function"
    },
    {
      "inputs": [
        {
          "components": [
            {
              "internalType": "uint32",
              "name": "eid",
              "type": "uint32"
            },
            {
              "internalType": "uint16",
              "name": "msgType",
              "type": "uint16"
            },
            {
              "internalType": "bytes",
              "name": "options",
              "type": "bytes"
            }
          ],
          "internalType": "struct EnforcedOptionParam[]",
          "name": "_enforcedOptions",
          "type": "tuple[]"
        }
      ],
      "name": "setEnforcedOptions",
      "outputs": [],
      "stateMutability": "nonpayable",
      "type": "function"
    },
    {
      "inputs": [
        {
          "internalType": "uint32",
          "name": "_eid",
          "type": "uint32"
        },
        {
          "internalType": "bytes32",
          "name": "_peer",
          "type": "bytes32"
        }
      ],
      "name": "setPeer",
      "outputs": [],
      "stateMutability": "nonpayable",
      "type": "function"
    },
    {
      "inputs": [],
      "name": "startGame",
      "outputs": [],
      "stateMutability": "nonpayable",
      "type": "function"
    },
    {
      "inputs": [
        {
          "internalType": "address",
          "name": "newOwner",
          "type": "address"
        }
      ],
      "name": "transferOwnership",
      "outputs": [],
      "stateMutability": "nonpayable",
      "type": "function"
    },
    {
      "inputs": [],
      "name": "winner",
      "outputs": [
        {
          "internalType": "address",
          "name": "",
          "type": "address"
        }
      ],
      "stateMutability": "view",
      "type": "function"
    }
  ],
  "transactionHash": "0x59a9dadd3bf270b8972e0bd7cbbb475e13c5bbc08fd7f0df4fb578aa3b6c7af2",
  "args": [
    "0x6EDCE65403992e310A62460808c4b910D972f10f",
    "0xAd203c0e9086ADC4991eD385a6793Fa3BCC5904B"
  ],
  "numDeployments": 2,
  "solcInputHash": "bd5bc55a8bdaf0435eafd14e5929bc90",
  "bytecode": "0x60a0604052600880546001600160b01b03191690553480156200002157600080fd5b5060405162002b7c38038062002b7c83398101604081905262000044916200018c565b81818181806001600160a01b0381166200007857604051631e4fbdf760e01b81526000600482015260240160405180910390fd5b62000083816200011f565b506001600160a01b038083166080528116620000b257604051632d618d8160e21b815260040160405180910390fd5b60805160405163ca5eb5e160e01b81526001600160a01b0383811660048301529091169063ca5eb5e190602401600060405180830381600087803b158015620000fa57600080fd5b505af11580156200010f573d6000803e3d6000fd5b50505050505050505050620001c4565b600080546001600160a01b038381166001600160a01b0319831681178455604051919092169283917f8be0079c531659141344cd1fd0a4f28419497f9722a3daafe3b4186f6b6457e09190a35050565b80516001600160a01b03811681146200018757600080fd5b919050565b60008060408385031215620001a057600080fd5b620001ab836200016f565b9150620001bb602084016200016f565b90509250929050565b6080516129726200020a600039600081816103140152818161073701528181610c500152818161130901528181611585015281816118b5015261196e01526129726000f3fe6080604052600436106101cd5760003560e01c80638da5cb5b116100f7578063ca5eb5e111610095578063f020044f11610064578063f020044f146106bb578063f2fde38b146106d5578063f931def7146106f5578063ff7bd03d1461071557600080fd5b8063ca5eb5e114610625578063d3b4866e14610645578063d65ab5f214610680578063dfbf53ae1461069557600080fd5b8063b98bd070116100d1578063b98bd07014610595578063bb0b6a53146105b5578063bb472219146105f0578063bc70b3541461060557600080fd5b80638da5cb5b1461041a578063b2e7d55e14610438578063b7d0628b1461046857600080fd5b80634b6419eb1161016f578063715018a61161013e578063715018a61461037e5780637d25a05e1461039357806382413eac146103cb5780638a19c8bc146103fb57600080fd5b80634b6419eb146102b25780635535d461146102e25780635e280f11146103025780636fa8a0811461034e57600080fd5b806332970710116101ab57806332970710146102365780633400288b1461025857806336ef9620146102785780634a9ae0b81461028b57600080fd5b806313137d65146101d257806317442b70146101e75780631f5e13341461020e575b600080fd5b6101e56101e0366004611d84565b610735565b005b3480156101f357600080fd5b50604080516001815260026020820152015b60405180910390f35b34801561021a57600080fd5b50610223600181565b60405161ffff9091168152602001610205565b34801561024257600080fd5b5061024b6107f5565b6040516102059190611e73565b34801561026457600080fd5b506101e5610273366004611ea6565b610883565b6101e5610286366004611ed0565b610899565b34801561029757600080fd5b506102a0600781565b60405160ff9091168152602001610205565b3480156102be57600080fd5b506102a06102cd366004611f61565b60076020526000908152604090205460ff1681565b3480156102ee57600080fd5b5061024b6102fd366004611f8e565b6108ed565b34801561030e57600080fd5b506103367f000000000000000000000000000000000000000000000000000000000000000081565b6040516001600160a01b039091168152602001610205565b34801561035a57600080fd5b506102a0610369366004611f61565b60056020526000908152604090205460ff1681565b34801561038a57600080fd5b506101e5610911565b34801561039f57600080fd5b506103b36103ae366004611ea6565b610925565b6040516001600160401b039091168152602001610205565b3480156103d757600080fd5b506103eb6103e6366004611fc1565b61092e565b6040519015158152602001610205565b34801561040757600080fd5b506008546102a090610100900460ff1681565b34801561042657600080fd5b506000546001600160a01b0316610336565b34801561044457600080fd5b506102a0610453366004611f61565b60066020526000908152604090205460ff1681565b34801561047457600080fd5b506008546000805160206128fd8339815191525460008051602061291d833981519152547f3e5fec24aa4dc4e5aee2e025e51e1392c72a2500577559fae9665c6d52bd6a31547fb39221ace053465ec3453ce2b36430bd138b997ecea25c1043da0c366812b8285460026000527f8819ef417987f8ae7a81f42cdfb18815282fe989326fbff903d13cf0e03ace2954600760209081527fb7c774451310d1be4108bc180d1b52823cb0ee0274a6c0081bcaf94f115fb96d546040805160ff808b1615158252610100808c04821695830195909552988916918101919091529587166060870152938616608086015291851660a0850152841660c0840152921660e0820152620100009092046001600160a01b03169082015261012001610205565b3480156105a157600080fd5b506101e56105b0366004612027565b610943565b3480156105c157600080fd5b506105e26105d036600461209b565b60016020526000908152604090205481565b604051908152602001610205565b3480156105fc57600080fd5b506101e561095d565b34801561061157600080fd5b5061024b6106203660046120b6565b610a81565b34801561063157600080fd5b506101e5610640366004612116565b610c29565b34801561065157600080fd5b50610665610660366004612133565b610caf565b60408051825181526020928301519281019290925201610205565b34801561068c57600080fd5b506101e5610d0d565b3480156106a157600080fd5b50600854610336906201000090046001600160a01b031681565b3480156106c757600080fd5b506008546103eb9060ff1681565b3480156106e157600080fd5b506101e56106f0366004612116565b610eb6565b34801561070157600080fd5b506103eb6107103660046121ca565b610ef4565b34801561072157600080fd5b506103eb6107303660046121e6565b610f2d565b7f00000000000000000000000000000000000000000000000000000000000000006001600160a01b03163314610785576040516391ac5e4f60e01b81523360048201526024015b60405180910390fd5b6020870180359061079f9061079a908a61209b565b610f63565b146107dd576107b1602088018861209b565b60405163309afaf360e21b815263ffffffff90911660048201526020880135602482015260440161077c565b6107ec87878787878787610f9f565b50505050505050565b6003805461080290612202565b80601f016020809104026020016040519081016040528092919081815260200182805461082e90612202565b801561087b5780601f106108505761010080835404028352916020019161087b565b820191906000526020600020905b81548152906001019060200180831161085e57829003601f168201915b505050505081565b61088b611254565b6108958282611281565b5050565b600084846040516020016108ae92919061225f565b60405160208183030381529060405290506107ec86826108d18960018888610a81565b60405180604001604052803481526020016000815250336112d6565b60026020908152600092835260408084209091529082529020805461080290612202565b610919611254565b61092360006113e1565b565b60005b92915050565b6001600160a01b03811630145b949350505050565b61094b611254565b61089561095882846122e1565b611431565b610965611254565b600880546001600160b01b031916905560015b600a8160ff16116109a85760ff8116600090815260046020526040812055806109a08161241c565b915050610978565b506000805160206128fd833981519152805460ff1990811690915560008051602061291d8339815191528054821690557f3e5fec24aa4dc4e5aee2e025e51e1392c72a2500577559fae9665c6d52bd6a318054821690557f8819ef417987f8ae7a81f42cdfb18815282fe989326fbff903d13cf0e03ace2980548216905560076020527fb39221ace053465ec3453ce2b36430bd138b997ecea25c1043da0c366812b82880548216905560026000527fb7c774451310d1be4108bc180d1b52823cb0ee0274a6c0081bcaf94f115fb96d80549091169055565b63ffffffff8416600090815260026020908152604080832061ffff87168452909152812080546060929190610ab590612202565b80601f0160208091040260200160405190810160405280929190818152602001828054610ae190612202565b8015610b2e5780601f10610b0357610100808354040283529160200191610b2e565b820191906000526020600020905b815481529060010190602001808311610b1157829003601f168201915b505050505090508051600003610b7e5783838080601f01602080910402602001604051908101604052809392919081815260200183838082843760009201919091525092945061093b9350505050565b6000839003610b8e57905061093b565b60028310610c0c57610bd584848080601f01602080910402602001604051908101604052809392919081815260200183838082843760009201919091525061154392505050565b80610be3846002818861243b565b604051602001610bf593929190612465565b60405160208183030381529060405291505061093b565b8383604051639a6d49cd60e01b815260040161077c92919061225f565b610c31611254565b60405163ca5eb5e160e01b81526001600160a01b0382811660048301527f0000000000000000000000000000000000000000000000000000000000000000169063ca5eb5e190602401600060405180830381600087803b158015610c9457600080fd5b505af1158015610ca8573d6000803e3d6000fd5b5050505050565b604080518082019091526000808252602082015260008686604051602001610cd892919061225f565b6040516020818303038152906040529050610d018882610cfb8b60018a8a610a81565b8661156f565b98975050505050505050565b60085460ff1615610d565760405162461bcd60e51b815260206004820152601360248201527247616d6520616c72656164792061637469766560681b604482015260640161077c565b6000805160206128fd8339815191528054600760ff19918216811790925560008051602061291d83398151915280548216831790557f3e5fec24aa4dc4e5aee2e025e51e1392c72a2500577559fae9665c6d52bd6a318054821690557f8819ef417987f8ae7a81f42cdfb18815282fe989326fbff903d13cf0e03ace298054821690556020919091527fb39221ace053465ec3453ce2b36430bd138b997ecea25c1043da0c366812b82880548216905560026000527fb7c774451310d1be4108bc180d1b52823cb0ee0274a6c0081bcaf94f115fb96d8054909116905560015b600a8160ff1611610e665760ff811660009081526004602052604081205580610e5e8161241c565b915050610e36565b50600880546001600160b01b03191661010117905560408051600780825260208201527ffc55cc067c35415abed01111d4da0583804cda015f0d752a5bbb9cfdbcb9031c910160405180910390a1565b610ebe611254565b6001600160a01b038116610ee857604051631e4fbdf760e01b81526000600482015260240161077c565b610ef1816113e1565b50565b60046020528160005260406000208160028110610f1057600080fd5b602081049091015460ff601f9092166101000a9004169150829050565b6000602082018035906001908390610f45908661209b565b63ffffffff1681526020810191909152604001600020541492915050565b63ffffffff8116600090815260016020526040812054806109285760405163f6ff4fb760e01b815263ffffffff8416600482015260240161077c565b60008080610faf8789018961248d565b9250925092508260ff1660011480610fca57508260ff166002145b61100a5760405162461bcd60e51b8152602060048201526011602482015270125b9d985b1a59081c1b185e595c881251607a1b604482015260640161077c565b61101760208b018b61209b565b63ffffffff16619d350361104c5760ff8381166000908152600660205260409020805460ff191691841691909117905561108a565b61105960208b018b61209b565b63ffffffff16619d270361108a5760ff8381166000908152600760205260409020805460ff19169184169190911790555b60ff811660009081526004602052604090206001906110a982866124d0565b60ff16600281106110bc576110bc6124e9565b602091828204019190066101000a81548160ff0219169083151502179055508060ff168360ff167f7a7a6704e384861fc076ca4f4a291483b0cfa6f56d0a16850ed8c592888654b18460405161111b919060ff91909116815260200190565b60405180910390a360ff8116600090815260046020526040808220815180830192839052916002908285855b825461010083900a900460ff1615158152602060019283018181049485019490930390920291018084116111475790505050505050905080600060028110611191576111916124e9565b602002015180156111a3575060208101515b156111fc5780516020808301516040805193151584529015159183019190915260ff8416917fb481e2040e3855ca9357b8654d94edaf5e5cdb7450804968250121ff8323e650910160405180910390a26111fc82611650565b6112058461177a565b61120e8361177a565b6112178561177a565b604051602001611229939291906124ff565b6040516020818303038152906040526003908161124691906125e9565b505050505050505050505050565b6000546001600160a01b031633146109235760405163118cdaa760e01b815233600482015260240161077c565b63ffffffff8216600081815260016020908152604091829020849055815192835282018390527f238399d427b947898edb290f5ff0f9109849b1c3ba196a42e35f00c50a54b98b910160405180910390a15050565b6112de611cc8565b60006112ed8460000151611889565b6020850151909150156113075761130784602001516118b1565b7f00000000000000000000000000000000000000000000000000000000000000006001600160a01b0316632637a450826040518060a001604052808b63ffffffff1681526020016113578c610f63565b81526020018a815260200189815260200160008960200151111515815250866040518463ffffffff1660e01b81526004016113939291906126a8565b60806040518083038185885af11580156113b1573d6000803e3d6000fd5b50505050506040513d601f19601f820116820180604052508101906113d6919061276f565b979650505050505050565b600080546001600160a01b038381166001600160a01b0319831681178455604051919092169283917f8be0079c531659141344cd1fd0a4f28419497f9722a3daafe3b4186f6b6457e09190a35050565b60005b815181101561150857611463828281518110611452576114526124e9565b602002602001015160400151611543565b818181518110611475576114756124e9565b60200260200101516040015160026000848481518110611497576114976124e9565b60200260200101516000015163ffffffff1663ffffffff16815260200190815260200160002060008484815181106114d1576114d16124e9565b60200260200101516020015161ffff1661ffff16815260200190815260200160002090816114ff91906125e9565b50600101611434565b507fbe4864a8e820971c0247f5992e2da559595f7bf076a21cb5928d443d2a13b6748160405161153891906127c5565b60405180910390a150565b600281015161ffff81166003146108955781604051639a6d49cd60e01b815260040161077c9190611e73565b60408051808201909152600080825260208201527f00000000000000000000000000000000000000000000000000000000000000006001600160a01b031663ddc28c586040518060a001604052808863ffffffff1681526020016115d289610f63565b8152602001878152602001868152602001851515815250306040518363ffffffff1660e01b81526004016116079291906126a8565b6040805180830381865afa158015611623573d6000803e3d6000fd5b505050506040513d601f19601f820116820180604052508101906116479190612850565b95945050505050565b60085460ff166116945760405162461bcd60e51b815260206004820152600f60248201526e47616d65206e6f742061637469766560881b604482015260640161077c565b60006116a260026001611993565b905060006116b260016002611993565b905060ff8216156116c8576116c86001836119e4565b60ff8116156116dc576116dc6002826119e4565b600160005260056020526000805160206128fd8339815191525460ff16158061171f57506002600052600560205260008051602061291d8339815191525460ff16155b156117315761172c611af9565b505050565b60088054610100900460ff169060016117498361241c565b82546101009290920a60ff818102199093169183160217909155841660009081526004602052604081205550505050565b60608160ff166000036117a45750506040805180820190915260018152600360fc1b602082015290565b8160005b60ff8216156117d157806117bb8161241c565b91506117ca9050600a83612882565b91506117a8565b60008160ff166001600160401b038111156117ee576117ee612273565b6040519080825280601f01601f191660200182016040528015611818576020820181803683370190505b5090505b60ff85161561093b576118306001836124d0565b915061183d600a866128a4565b6118489060306128c6565b60f81b818360ff1681518110611860576118606124e9565b60200101906001600160f81b031916908160001a905350611882600a86612882565b945061181c565b60008134146118ad576040516304fb820960e51b815234600482015260240161077c565b5090565b60007f00000000000000000000000000000000000000000000000000000000000000006001600160a01b031663e4fe1d946040518163ffffffff1660e01b8152600401602060405180830381865afa158015611911573d6000803e3d6000fd5b505050506040513d601f19601f8201168201806040525081019061193591906128df565b90506001600160a01b03811661195e576040516329b99a9560e11b815260040160405180910390fd5b6108956001600160a01b038216337f000000000000000000000000000000000000000000000000000000000000000085611bf7565b60ff8083166000908152600660209081526040808320548585168452600790925282205491929081169116808211156119d9576119d081836124d0565b92505050610928565b506000949350505050565b60ff80831660009081526005602052604090205481169082168111611a225760ff83166000908152600560205260409020805460ff19169055611a50565b611a2c82826124d0565b60ff8481166000908152600560205260409020805460ff1916929091169190911790555b60ff831660018114611a63576001611a66565b60025b60405160ff858116825291909116907f5c2fffd2c6b3d399796c6787582bc4fe23789c65b5a91006828609754dec8fd39060200160405180910390a360ff838116600081815260056020908152604091829020548251868616815294169084015290917fb7e681dd259f8b5e413132d8443484e3c7583c8c641fe43fe40b1c6cf7771217910160405180910390a2505050565b6008805460ff191690556001600090815260056020526000805160206128fd8339815191525460ff169003611b95576008805462010000600160b01b03191662010000179055600260008190526005602090815260008051602061291d8339815191525460405160ff90911681527f4cf8d1fcfd218e15890fb1b4a2df7e7ddd00822b1279340e7d9958b3cdbd7e7391015b60405180910390a2565b6008805462010000600160b01b031916905560016000819052600560209081526000805160206128fd8339815191525460405160ff90911681527f4cf8d1fcfd218e15890fb1b4a2df7e7ddd00822b1279340e7d9958b3cdbd7e739101611b8b565b604080516001600160a01b0385811660248301528416604482015260648082018490528251808303909101815260849091019091526020810180516001600160e01b03166323b872dd60e01b179052611c51908590611c57565b50505050565b600080602060008451602086016000885af180611c7a576040513d6000823e3d81fd5b50506000513d91508115611c92578060011415611c9f565b6001600160a01b0384163b155b15611c5157604051635274afe760e01b81526001600160a01b038516600482015260240161077c565b60405180606001604052806000801916815260200160006001600160401b03168152602001611d0a604051806040016040528060008152602001600081525090565b905290565b600060608284031215611d2157600080fd5b50919050565b60008083601f840112611d3957600080fd5b5081356001600160401b03811115611d5057600080fd5b602083019150836020828501011115611d6857600080fd5b9250929050565b6001600160a01b0381168114610ef157600080fd5b600080600080600080600060e0888a031215611d9f57600080fd5b611da98989611d0f565b96506060880135955060808801356001600160401b0380821115611dcc57600080fd5b611dd88b838c01611d27565b909750955060a08a01359150611ded82611d6f565b90935060c08901359080821115611e0357600080fd5b50611e108a828b01611d27565b989b979a50959850939692959293505050565b60005b83811015611e3e578181015183820152602001611e26565b50506000910152565b60008151808452611e5f816020860160208601611e23565b601f01601f19169290920160200192915050565b602081526000611e866020830184611e47565b9392505050565b803563ffffffff81168114611ea157600080fd5b919050565b60008060408385031215611eb957600080fd5b611ec283611e8d565b946020939093013593505050565b600080600080600060608688031215611ee857600080fd5b611ef186611e8d565b945060208601356001600160401b0380821115611f0d57600080fd5b611f1989838a01611d27565b90965094506040880135915080821115611f3257600080fd5b50611f3f88828901611d27565b969995985093965092949392505050565b803560ff81168114611ea157600080fd5b600060208284031215611f7357600080fd5b611e8682611f50565b803561ffff81168114611ea157600080fd5b60008060408385031215611fa157600080fd5b611faa83611e8d565b9150611fb860208401611f7c565b90509250929050565b60008060008060a08587031215611fd757600080fd5b611fe18686611d0f565b935060608501356001600160401b03811115611ffc57600080fd5b61200887828801611d27565b909450925050608085013561201c81611d6f565b939692955090935050565b6000806020838503121561203a57600080fd5b82356001600160401b038082111561205157600080fd5b818501915085601f83011261206557600080fd5b81358181111561207457600080fd5b8660208260051b850101111561208957600080fd5b60209290920196919550909350505050565b6000602082840312156120ad57600080fd5b611e8682611e8d565b600080600080606085870312156120cc57600080fd5b6120d585611e8d565b93506120e360208601611f7c565b925060408501356001600160401b038111156120fe57600080fd5b61210a87828801611d27565b95989497509550505050565b60006020828403121561212857600080fd5b8135611e8681611d6f565b6000806000806000806080878903121561214c57600080fd5b61215587611e8d565b955060208701356001600160401b038082111561217157600080fd5b61217d8a838b01611d27565b9097509550604089013591508082111561219657600080fd5b506121a389828a01611d27565b909450925050606087013580151581146121bc57600080fd5b809150509295509295509295565b600080604083850312156121dd57600080fd5b611ec283611f50565b6000606082840312156121f857600080fd5b611e868383611d0f565b600181811c9082168061221657607f821691505b602082108103611d2157634e487b7160e01b600052602260045260246000fd5b81835281816020850137506000828201602090810191909152601f909101601f19169091010190565b60208152600061093b602083018486612236565b634e487b7160e01b600052604160045260246000fd5b604051606081016001600160401b03811182821017156122ab576122ab612273565b60405290565b604051601f8201601f191681016001600160401b03811182821017156122d9576122d9612273565b604052919050565b60006001600160401b03808411156122fb576122fb612273565b8360051b602061230c8183016122b1565b86815291850191818101903684111561232457600080fd5b865b848110156123fa5780358681111561233e5760008081fd5b880160603682900312156123525760008081fd5b61235a612289565b61236382611e8d565b8152612370868301611f7c565b86820152604080830135898111156123885760008081fd5b9290920191601f368185011261239e5760008081fd5b83358a8111156123b0576123b0612273565b6123c1818301601f19168a016122b1565b915080825236898287010111156123d85760008081fd5b808986018a840137600090820189015290820152845250918301918301612326565b50979650505050505050565b634e487b7160e01b600052601160045260246000fd5b600060ff821660ff810361243257612432612406565b60010192915050565b6000808585111561244b57600080fd5b8386111561245857600080fd5b5050820193919092039150565b60008451612477818460208901611e23565b8201838582376000930192835250909392505050565b6000806000606084860312156124a257600080fd5b6124ab84611f50565b92506124b960208501611f50565b91506124c760408501611f50565b90509250925092565b60ff828116828216039081111561092857610928612406565b634e487b7160e01b600052603260045260246000fd5b660283630bcb2b9160cd1b815260008451612521816007850160208901611e23565b7001031b7b6b83632ba32b2103937bab7321607d1b6007918401918201528451612552816018840160208901611e23565b650103bb4ba34160d51b60189290910191820152835161257981601e840160208801611e23565b65207a6f6e657360d01b601e929091019182015260240195945050505050565b601f82111561172c576000816000526020600020601f850160051c810160208610156125c25750805b601f850160051c820191505b818110156125e1578281556001016125ce565b505050505050565b81516001600160401b0381111561260257612602612273565b612616816126108454612202565b84612599565b602080601f83116001811461264b57600084156126335750858301515b600019600386901b1c1916600185901b1785556125e1565b600085815260208120601f198616915b8281101561267a5788860151825594840194600190910190840161265b565b50858210156126985787850151600019600388901b60f8161c191681555b5050505050600190811b01905550565b6040815263ffffffff8351166040820152602083015160608201526000604084015160a060808401526126de60e0840182611e47565b90506060850151603f198483030160a08501526126fb8282611e47565b60809690960151151560c08501525050506001600160a01b039190911660209091015290565b60006040828403121561273357600080fd5b604051604081018181106001600160401b038211171561275557612755612273565b604052825181526020928301519281019290925250919050565b60006080828403121561278157600080fd5b612789612289565b8251815260208301516001600160401b03811681146127a757600080fd5b60208201526127b98460408501612721565b60408201529392505050565b600060208083018184528085518083526040925060408601915060408160051b87010184880160005b8381101561284257888303603f190185528151805163ffffffff1684528781015161ffff1688850152860151606087850181905261282e81860183611e47565b9689019694505050908601906001016127ee565b509098975050505050505050565b60006040828403121561286257600080fd5b611e868383612721565b634e487b7160e01b600052601260045260246000fd5b600060ff8316806128955761289561286c565b8060ff84160491505092915050565b600060ff8316806128b7576128b761286c565b8060ff84160691505092915050565b60ff818116838216019081111561092857610928612406565b6000602082840312156128f157600080fd5b8151611e8681611d6f56fe1471eb6eb2c5e789fc3de43f8ce62938c7d1836ec861730447e2ada8fd81017b89832631fb3c3307a103ba2c84ab569c64d6182a18893dcd163f0f1c2090733aa264697066735822122054ff8931868bdfa7dc208b33d0531ee353176ed9d2a3f92a95ec115cc8669b0d64736f6c63430008160033",
  "devdoc": {
    "errors": {
      "OwnableInvalidOwner(address)": [
        {
          "details": "The owner is not a valid owner account. (eg. `address(0)`)"
        }
      ],
      "OwnableUnauthorizedAccount(address)": [
        {
          "details": "The caller account is not authorized to perform an operation."
        }
      ],
      "SafeERC20FailedOperation(address)": [
        {
          "details": "An operation with an ERC-20 token failed."
        }
      ]
    },
    "kind": "dev",
    "methods": {
      "allowInitializePath((uint32,bytes32,uint64))": {
        "details": "This indicates to the endpoint that the OApp has enabled msgs for this particular path to be received.This defaults to assuming if a peer has been set, its initialized. Can be overridden by the OApp if there is other logic to determine this.",
        "params": {
          "origin": "The origin information containing the source endpoint and sender address."
        },
        "returns": {
          "_0": "Whether the path has been initialized."
        }
      },
      "combineOptions(uint32,uint16,bytes)": {
        "details": "If there is an enforced lzReceive option: - {gasLimit: 200k, msg.value: 1 ether} AND a caller supplies a lzReceive option: {gasLimit: 100k, msg.value: 0.5 ether} - The resulting options will be {gasLimit: 300k, msg.value: 1.5 ether} when the message is executed on the remote lzReceive() function.This presence of duplicated options is handled off-chain in the verifier/executor.",
        "params": {
          "_eid": "The endpoint ID.",
          "_extraOptions": "Additional options passed by the caller.",
          "_msgType": "The OAPP message type."
        },
        "returns": {
          "_0": "options The combination of caller specified options AND enforced options."
        }
      },
      "constructor": {
        "params": {
          "_endpoint": "The local chain's LayerZero Endpoint V2 address",
          "_owner": "The address permitted to configure this OApp"
        }
      },
      "isComposeMsgSender((uint32,bytes32,uint64),bytes,address)": {
        "details": "_origin The origin information containing the source endpoint and sender address.  - srcEid: The source chain endpoint ID.  - sender: The sender address on the src chain.  - nonce: The nonce of the message._message The lzReceive payload.Applications can optionally choose to implement separate composeMsg senders that are NOT the bridging layer.The default sender IS the OAppReceiver implementer.",
        "params": {
          "_sender": "The sender address."
        },
        "returns": {
          "_0": "isSender Is a valid sender."
        }
      },
      "lzReceive((uint32,bytes32,uint64),bytes32,bytes,address,bytes)": {
        "details": "Entry point for receiving messages or packets from the endpoint.Entry point for receiving msg/packet from the LayerZero endpoint.",
        "params": {
          "_executor": "The address of the executor for the received message.",
          "_extraData": "Additional arbitrary data provided by the corresponding executor.",
          "_guid": "The unique identifier for the received LayerZero message.",
          "_message": "The payload of the received message.",
          "_origin": "The origin information containing the source endpoint and sender address.  - srcEid: The source chain endpoint ID.  - sender: The sender address on the src chain.  - nonce: The nonce of the message."
        }
      },
      "nextNonce(uint32,bytes32)": {
        "details": "_srcEid The source endpoint ID._sender The sender address.The path nonce starts from 1. If 0 is returned it means that there is NO nonce ordered enforcement.Is required by the off-chain executor to determine the OApp expects msg execution is ordered.This is also enforced by the OApp.By default this is NOT enabled. ie. nextNonce is hardcoded to return 0.",
        "returns": {
          "nonce": "The next nonce."
        }
      },
      "oAppVersion()": {
        "returns": {
          "receiverVersion": "The version of the OAppReceiver.sol implementation.",
          "senderVersion": "The version of the OAppSender.sol implementation."
        }
      },
      "owner()": {
        "details": "Returns the address of the current owner."
      },
      "quoteSendString(uint32,string,bytes,bool)": {
        "params": {
          "_dstEid": "Destination chain's endpoint ID.",
          "_options": "Message execution options (e.g., for sending gas to destination).",
          "_payInLzToken": "Whether to return fee in ZRO token.",
          "_string": "The string to send."
        },
        "returns": {
          "fee": "A `MessagingFee` struct containing the calculated gas fee in either the native token or ZRO token."
        }
      },
      "renounceOwnership()": {
        "details": "Leaves the contract without owner. It will not be possible to call `onlyOwner` functions. Can only be called by the current owner. NOTE: Renouncing ownership will leave the contract without an owner, thereby disabling any functionality that is only available to the owner."
      },
      "sendString(uint32,string,bytes)": {
        "params": {
          "_dstEid": "Destination Endpoint ID (uint32)",
          "_options": "Execution options for gas on the destination (bytes)",
          "_string": "The string to send"
        }
      },
      "setDelegate(address)": {
        "details": "Only the owner/admin of the OApp can call this function.Provides the ability for a delegate to set configs, on behalf of the OApp, directly on the Endpoint contract.",
        "params": {
          "_delegate": "The address of the delegate to be set."
        }
      },
      "setEnforcedOptions((uint32,uint16,bytes)[])": {
        "details": "Sets the enforced options for specific endpoint and message type combinations.Only the owner/admin of the OApp can call this function.Provides a way for the OApp to enforce things like paying for PreCrime, AND/OR minimum dst lzReceive gas amounts etc.These enforced options can vary as the potential options/execution on the remote may differ as per the msgType. eg. Amount of lzReceive() gas necessary to deliver a lzCompose() message adds overhead you dont want to pay if you are only making a standard LayerZero message ie. lzReceive() WITHOUT sendCompose().",
        "params": {
          "_enforcedOptions": "An array of EnforcedOptionParam structures specifying enforced options."
        }
      },
      "setPeer(uint32,bytes32)": {
        "details": "Only the owner/admin of the OApp can call this function.Indicates that the peer is trusted to send LayerZero messages to this OApp.Set this to bytes32(0) to remove the peer address.Peer is a bytes32 to accommodate non-evm chains.",
        "params": {
          "_eid": "The endpoint ID.",
          "_peer": "The address of the peer to be associated with the corresponding endpoint."
        }
      },
      "transferOwnership(address)": {
        "details": "Transfers ownership of the contract to a new account (`newOwner`). Can only be called by the current owner."
      }
    },
    "version": 1
  },
  "userdoc": {
    "kind": "user",
    "methods": {
      "SEND()": {
        "notice": "Msg type for sending a string, for use in OAppOptionsType3 as an enforced option"
      },
      "allowInitializePath((uint32,bytes32,uint64))": {
        "notice": "Checks if the path initialization is allowed based on the provided origin."
      },
      "combineOptions(uint32,uint16,bytes)": {
        "notice": "Combines options for a given endpoint and message type."
      },
      "constructor": {
        "notice": "Initialize with Endpoint V2 and owner address"
      },
      "endpoint()": {
        "notice": "Retrieves the LayerZero endpoint associated with the OApp."
      },
      "getGameState()": {
        "notice": "Get current game state"
      },
      "isComposeMsgSender((uint32,bytes32,uint64),bytes,address)": {
        "notice": "Indicates whether an address is an approved composeMsg sender to the Endpoint."
      },
      "lastMessage()": {
        "notice": "Last string received from any remote chain"
      },
      "nextNonce(uint32,bytes32)": {
        "notice": "Retrieves the next nonce for a given source endpoint and sender address."
      },
      "oAppVersion()": {
        "notice": "Retrieves the OApp version information."
      },
      "peers(uint32)": {
        "notice": "Retrieves the peer (OApp) associated with a corresponding endpoint."
      },
      "quoteSendString(uint32,string,bytes,bool)": {
        "notice": "Quotes the gas needed to pay for the full omnichain transaction in native gas or ZRO token."
      },
      "resetGame()": {
        "notice": "Reset game state (owner only)"
      },
      "sendString(uint32,string,bytes)": {
        "notice": "Send a string to a remote OApp on another chain"
      },
      "setDelegate(address)": {
        "notice": "Sets the delegate address for the OApp."
      },
      "setPeer(uint32,bytes32)": {
        "notice": "Sets the peer address (OApp instance) for a corresponding endpoint."
      },
      "startGame()": {
        "notice": "Start a new game"
      }
    },
    "version": 1
  },
  "storageLayout": {
    "storage": [
      {
        "astId": 3233,
        "contract": "contracts/StarHub.sol:StarHub",
        "label": "_owner",
        "offset": 0,
        "slot": "0",
        "type": "t_address"
      },
      {
        "astId": 1927,
        "contract": "contracts/StarHub.sol:StarHub",
        "label": "peers",
        "offset": 0,
        "slot": "1",
        "type": "t_mapping(t_uint32,t_bytes32)"
      },
      {
        "astId": 2531,
        "contract": "contracts/StarHub.sol:StarHub",
        "label": "enforcedOptions",
        "offset": 0,
        "slot": "2",
        "type": "t_mapping(t_uint32,t_mapping(t_uint16,t_bytes_storage))"
      },
      {
        "astId": 6427,
        "contract": "contracts/StarHub.sol:StarHub",
        "label": "lastMessage",
        "offset": 0,
        "slot": "3",
        "type": "t_string_storage"
      },
      {
        "astId": 6437,
        "contract": "contracts/StarHub.sol:StarHub",
        "label": "roundCompletions",
        "offset": 0,
        "slot": "4",
        "type": "t_mapping(t_uint8,t_array(t_bool)2_storage)"
      },
      {
        "astId": 6441,
        "contract": "contracts/StarHub.sol:StarHub",
        "label": "playerHealth",
        "offset": 0,
        "slot": "5",
        "type": "t_mapping(t_uint8,t_uint8)"
      },
      {
        "astId": 6448,
        "contract": "contracts/StarHub.sol:StarHub",
        "label": "playerAttackZones",
        "offset": 0,
        "slot": "6",
        "type": "t_mapping(t_uint8,t_uint8)"
      },
      {
        "astId": 6452,
        "contract": "contracts/StarHub.sol:StarHub",
        "label": "playerDefenseZones",
        "offset": 0,
        "slot": "7",
        "type": "t_mapping(t_uint8,t_uint8)"
      },
      {
        "astId": 6455,
        "contract": "contracts/StarHub.sol:StarHub",
        "label": "gameActive",
        "offset": 0,
        "slot": "8",
        "type": "t_bool"
      },
      {
        "astId": 6458,
        "contract": "contracts/StarHub.sol:StarHub",
        "label": "currentRound",
        "offset": 1,
        "slot": "8",
        "type": "t_uint8"
      },
      {
        "astId": 6464,
        "contract": "contracts/StarHub.sol:StarHub",
        "label": "winner",
        "offset": 2,
        "slot": "8",
        "type": "t_address"
      }
    ],
    "types": {
      "t_address": {
        "encoding": "inplace",
        "label": "address",
        "numberOfBytes": "20"
      },
      "t_array(t_bool)2_storage": {
        "base": "t_bool",
        "encoding": "inplace",
        "label": "bool[2]",
        "numberOfBytes": "32"
      },
      "t_bool": {
        "encoding": "inplace",
        "label": "bool",
        "numberOfBytes": "1"
      },
      "t_bytes32": {
        "encoding": "inplace",
        "label": "bytes32",
        "numberOfBytes": "32"
      },
      "t_bytes_storage": {
        "encoding": "bytes",
        "label": "bytes",
        "numberOfBytes": "32"
      },
      "t_mapping(t_uint16,t_bytes_storage)": {
        "encoding": "mapping",
        "key": "t_uint16",
        "label": "mapping(uint16 => bytes)",
        "numberOfBytes": "32",
        "value": "t_bytes_storage"
      },
      "t_mapping(t_uint32,t_bytes32)": {
        "encoding": "mapping",
        "key": "t_uint32",
        "label": "mapping(uint32 => bytes32)",
        "numberOfBytes": "32",
        "value": "t_bytes32"
      },
      "t_mapping(t_uint32,t_mapping(t_uint16,t_bytes_storage))": {
        "encoding": "mapping",
        "key": "t_uint32",
        "label": "mapping(uint32 => mapping(uint16 => bytes))",
        "numberOfBytes": "32",
        "value": "t_mapping(t_uint16,t_bytes_storage)"
      },
      "t_mapping(t_uint8,t_array(t_bool)2_storage)": {
        "encoding": "mapping",
        "key": "t_uint8",
        "label": "mapping(uint8 => bool[2])",
        "numberOfBytes": "32",
        "value": "t_array(t_bool)2_storage"
      },
      "t_mapping(t_uint8,t_uint8)": {
        "encoding": "mapping",
        "key": "t_uint8",
        "label": "mapping(uint8 => uint8)",
        "numberOfBytes": "32",
        "value": "t_uint8"
      },
      "t_string_storage": {
        "encoding": "bytes",
        "label": "string",
        "numberOfBytes": "32"
      },
      "t_uint16": {
        "encoding": "inplace",
        "label": "uint16",
        "numberOfBytes": "2"
      },
      "t_uint32": {
        "encoding": "inplace",
        "label": "uint32",
        "numberOfBytes": "4"
      },
      "t_uint8": {
        "encoding": "inplace",
        "label": "uint8",
        "numberOfBytes": "1"
      }
    }
  }
}