{
  "address": "0x9412970237c5942765cE04191C250dC1f2b91F1c",
  "abi": [
    {
      "inputs": [
        {
          "internalType": "address",
          "name": "_endpoint",
          "type": "address"
        },
        {
          "internalType": "uint32",
          "name": "_readChannel",
          "type": "uint32"
        }
      ],
      "stateMutability": "nonpayable",
      "type": "constructor"
    },
    {
      "inputs": [],
      "name": "InvalidDelegate",
      "type": "error"
    },
    {
      "inputs": [],
      "name": "InvalidEndpointCall",
      "type": "error"
    },
    {
      "inputs": [
        {
          "internalType": "bytes",
          "name": "options",
          "type": "bytes"
        }
      ],
      "name": "InvalidOptions",
      "type": "error"
    },
    {
      "inputs": [],
      "name": "LzTokenUnavailable",
      "type": "error"
    },
    {
      "inputs": [
        {
          "internalType": "uint32",
          "name": "eid",
          "type": "uint32"
        }
      ],
      "name": "NoPeer",
      "type": "error"
    },
    {
      "inputs": [
        {
          "internalType": "uint256",
          "name": "msgValue",
          "type": "uint256"
        }
      ],
      "name": "NotEnoughNative",
      "type": "error"
    },
    {
      "inputs": [
        {
          "internalType": "address",
          "name": "addr",
          "type": "address"
        }
      ],
      "name": "OnlyEndpoint",
      "type": "error"
    },
    {
      "inputs": [
        {
          "internalType": "uint32",
          "name": "eid",
          "type": "uint32"
        },
        {
          "internalType": "bytes32",
          "name": "sender",
          "type": "bytes32"
        }
      ],
      "name": "OnlyPeer",
      "type": "error"
    },
    {
      "inputs": [
        {
          "internalType": "address",
          "name": "owner",
          "type": "address"
        }
      ],
      "name": "OwnableInvalidOwner",
      "type": "error"
    },
    {
      "inputs": [
        {
          "internalType": "address",
          "name": "account",
          "type": "address"
        }
      ],
      "name": "OwnableUnauthorizedAccount",
      "type": "error"
    },
    {
      "inputs": [
        {
          "internalType": "uint8",
          "name": "bits",
          "type": "uint8"
        },
        {
          "internalType": "uint256",
          "name": "value",
          "type": "uint256"
        }
      ],
      "name": "SafeCastOverflowedUintDowncast",
      "type": "error"
    },
    {
      "inputs": [
        {
          "internalType": "address",
          "name": "token",
          "type": "address"
        }
      ],
      "name": "SafeERC20FailedOperation",
      "type": "error"
    },
    {
      "anonymous": false,
      "inputs": [
        {
          "indexed": false,
          "internalType": "uint256",
          "name": "totalZones",
          "type": "uint256"
        },
        {
          "indexed": false,
          "internalType": "uint256",
          "name": "player1TotalZones",
          "type": "uint256"
        },
        {
          "indexed": false,
          "internalType": "uint256",
          "name": "player2TotalZones",
          "type": "uint256"
        },
        {
          "indexed": false,
          "internalType": "uint8[][]",
          "name": "playerPerformance",
          "type": "uint8[][]"
        }
      ],
      "name": "AggregatedGameState",
      "type": "event"
    },
    {
      "anonymous": false,
      "inputs": [
        {
          "components": [
            {
              "internalType": "uint32",
              "name": "eid",
              "type": "uint32"
            },
            {
              "internalType": "uint16",
              "name": "msgType",
              "type": "uint16"
            },
            {
              "internalType": "bytes",
              "name": "options",
              "type": "bytes"
            }
          ],
          "indexed": false,
          "internalType": "struct EnforcedOptionParam[]",
          "name": "_enforcedOptions",
          "type": "tuple[]"
        }
      ],
      "name": "EnforcedOptionSet",
      "type": "event"
    },
    {
      "anonymous": false,
      "inputs": [
        {
          "indexed": true,
          "internalType": "address",
          "name": "previousOwner",
          "type": "address"
        },
        {
          "indexed": true,
          "internalType": "address",
          "name": "newOwner",
          "type": "address"
        }
      ],
      "name": "OwnershipTransferred",
      "type": "event"
    },
    {
      "anonymous": false,
      "inputs": [
        {
          "indexed": false,
          "internalType": "uint32",
          "name": "eid",
          "type": "uint32"
        },
        {
          "indexed": false,
          "internalType": "bytes32",
          "name": "peer",
          "type": "bytes32"
        }
      ],
      "name": "PeerSet",
      "type": "event"
    },
    {
      "inputs": [],
      "name": "CHAIN_A_COMPOSER",
      "outputs": [
        {
          "internalType": "address",
          "name": "",
          "type": "address"
        }
      ],
      "stateMutability": "view",
      "type": "function"
    },
    {
      "inputs": [],
      "name": "CHAIN_A_EID",
      "outputs": [
        {
          "internalType": "uint32",
          "name": "",
          "type": "uint32"
        }
      ],
      "stateMutability": "view",
      "type": "function"
    },
    {
      "inputs": [],
      "name": "CHAIN_B_COMPOSER",
      "outputs": [
        {
          "internalType": "address",
          "name": "",
          "type": "address"
        }
      ],
      "stateMutability": "view",
      "type": "function"
    },
    {
      "inputs": [],
      "name": "CHAIN_B_EID",
      "outputs": [
        {
          "internalType": "uint32",
          "name": "",
          "type": "uint32"
        }
      ],
      "stateMutability": "view",
      "type": "function"
    },
    {
      "inputs": [],
      "name": "READ_CHANNEL",
      "outputs": [
        {
          "internalType": "uint32",
          "name": "",
          "type": "uint32"
        }
      ],
      "stateMutability": "view",
      "type": "function"
    },
    {
      "inputs": [
        {
          "components": [
            {
              "internalType": "uint32",
              "name": "srcEid",
              "type": "uint32"
            },
            {
              "internalType": "bytes32",
              "name": "sender",
              "type": "bytes32"
            },
            {
              "internalType": "uint64",
              "name": "nonce",
              "type": "uint64"
            }
          ],
          "internalType": "struct Origin",
          "name": "origin",
          "type": "tuple"
        }
      ],
      "name": "allowInitializePath",
      "outputs": [
        {
          "internalType": "bool",
          "name": "",
          "type": "bool"
        }
      ],
      "stateMutability": "view",
      "type": "function"
    },
    {
      "inputs": [
        {
          "internalType": "uint32",
          "name": "",
          "type": "uint32"
        }
      ],
      "name": "chainConfigs",
      "outputs": [
        {
          "internalType": "uint16",
          "name": "confirmations",
          "type": "uint16"
        },
        {
          "internalType": "address",
          "name": "composerAddress",
          "type": "address"
        },
        {
          "internalType": "uint32",
          "name": "chainEid",
          "type": "uint32"
        }
      ],
      "stateMutability": "view",
      "type": "function"
    },
    {
      "inputs": [
        {
          "internalType": "uint32",
          "name": "_eid",
          "type": "uint32"
        },
        {
          "internalType": "uint16",
          "name": "_msgType",
          "type": "uint16"
        },
        {
          "internalType": "bytes",
          "name": "_extraOptions",
          "type": "bytes"
        }
      ],
      "name": "combineOptions",
      "outputs": [
        {
          "internalType": "bytes",
          "name": "",
          "type": "bytes"
        }
      ],
      "stateMutability": "view",
      "type": "function"
    },
    {
      "inputs": [],
      "name": "endpoint",
      "outputs": [
        {
          "internalType": "contract ILayerZeroEndpointV2",
          "name": "",
          "type": "address"
        }
      ],
      "stateMutability": "view",
      "type": "function"
    },
    {
      "inputs": [
        {
          "internalType": "uint32",
          "name": "eid",
          "type": "uint32"
        },
        {
          "internalType": "uint16",
          "name": "msgType",
          "type": "uint16"
        }
      ],
      "name": "enforcedOptions",
      "outputs": [
        {
          "internalType": "bytes",
          "name": "enforcedOption",
          "type": "bytes"
        }
      ],
      "stateMutability": "view",
      "type": "function"
    },
    {
      "inputs": [],
      "name": "getCmd",
      "outputs": [
        {
          "internalType": "bytes",
          "name": "",
          "type": "bytes"
        }
      ],
      "stateMutability": "view",
      "type": "function"
    },
    {
      "inputs": [
        {
          "components": [
            {
              "internalType": "uint32",
              "name": "srcEid",
              "type": "uint32"
            },
            {
              "internalType": "bytes32",
              "name": "sender",
              "type": "bytes32"
            },
            {
              "internalType": "uint64",
              "name": "nonce",
              "type": "uint64"
            }
          ],
          "internalType": "struct Origin",
          "name": "",
          "type": "tuple"
        },
        {
          "internalType": "bytes",
          "name": "",
          "type": "bytes"
        },
        {
          "internalType": "address",
          "name": "_sender",
          "type": "address"
        }
      ],
      "name": "isComposeMsgSender",
      "outputs": [
        {
          "internalType": "bool",
          "name": "",
          "type": "bool"
        }
      ],
      "stateMutability": "view",
      "type": "function"
    },
    {
      "inputs": [
        {
          "internalType": "bytes",
          "name": "",
          "type": "bytes"
        },
        {
          "internalType": "bytes",
          "name": "_response",
          "type": "bytes"
        }
      ],
      "name": "lzMap",
      "outputs": [
        {
          "internalType": "bytes",
          "name": "",
          "type": "bytes"
        }
      ],
      "stateMutability": "pure",
      "type": "function"
    },
    {
      "inputs": [
        {
          "components": [
            {
              "internalType": "uint32",
              "name": "srcEid",
              "type": "uint32"
            },
            {
              "internalType": "bytes32",
              "name": "sender",
              "type": "bytes32"
            },
            {
              "internalType": "uint64",
              "name": "nonce",
              "type": "uint64"
            }
          ],
          "internalType": "struct Origin",
          "name": "_origin",
          "type": "tuple"
        },
        {
          "internalType": "bytes32",
          "name": "_guid",
          "type": "bytes32"
        },
        {
          "internalType": "bytes",
          "name": "_message",
          "type": "bytes"
        },
        {
          "internalType": "address",
          "name": "_executor",
          "type": "address"
        },
        {
          "internalType": "bytes",
          "name": "_extraData",
          "type": "bytes"
        }
      ],
      "name": "lzReceive",
      "outputs": [],
      "stateMutability": "payable",
      "type": "function"
    },
    {
      "inputs": [
        {
          "internalType": "bytes",
          "name": "",
          "type": "bytes"
        },
        {
          "internalType": "bytes[]",
          "name": "_responses",
          "type": "bytes[]"
        }
      ],
      "name": "lzReduce",
      "outputs": [
        {
          "internalType": "bytes",
          "name": "",
          "type": "bytes"
        }
      ],
      "stateMutability": "pure",
      "type": "function"
    },
    {
      "inputs": [
        {
          "internalType": "uint32",
          "name": "",
          "type": "uint32"
        },
        {
          "internalType": "bytes32",
          "name": "",
          "type": "bytes32"
        }
      ],
      "name": "nextNonce",
      "outputs": [
        {
          "internalType": "uint64",
          "name": "nonce",
          "type": "uint64"
        }
      ],
      "stateMutability": "view",
      "type": "function"
    },
    {
      "inputs": [],
      "name": "oAppVersion",
      "outputs": [
        {
          "internalType": "uint64",
          "name": "senderVersion",
          "type": "uint64"
        },
        {
          "internalType": "uint64",
          "name": "receiverVersion",
          "type": "uint64"
        }
      ],
      "stateMutability": "pure",
      "type": "function"
    },
    {
      "inputs": [],
      "name": "owner",
      "outputs": [
        {
          "internalType": "address",
          "name": "",
          "type": "address"
        }
      ],
      "stateMutability": "view",
      "type": "function"
    },
    {
      "inputs": [
        {
          "internalType": "uint32",
          "name": "eid",
          "type": "uint32"
        }
      ],
      "name": "peers",
      "outputs": [
        {
          "internalType": "bytes32",
          "name": "peer",
          "type": "bytes32"
        }
      ],
      "stateMutability": "view",
      "type": "function"
    },
    {
      "inputs": [
        {
          "internalType": "bytes",
          "name": "_extraOptions",
          "type": "bytes"
        },
        {
          "internalType": "bool",
          "name": "_payInLzToken",
          "type": "bool"
        }
      ],
      "name": "quoteGameState",
      "outputs": [
        {
          "components": [
            {
              "internalType": "uint256",
              "name": "nativeFee",
              "type": "uint256"
            },
            {
              "internalType": "uint256",
              "name": "lzTokenFee",
              "type": "uint256"
            }
          ],
          "internalType": "struct MessagingFee",
          "name": "fee",
          "type": "tuple"
        }
      ],
      "stateMutability": "view",
      "type": "function"
    },
    {
      "inputs": [
        {
          "internalType": "bytes",
          "name": "_extraOptions",
          "type": "bytes"
        }
      ],
      "name": "readGameState",
      "outputs": [
        {
          "components": [
            {
              "internalType": "bytes32",
              "name": "guid",
              "type": "bytes32"
            },
            {
              "internalType": "uint64",
              "name": "nonce",
              "type": "uint64"
            },
            {
              "components": [
                {
                  "internalType": "uint256",
                  "name": "nativeFee",
                  "type": "uint256"
                },
                {
                  "internalType": "uint256",
                  "name": "lzTokenFee",
                  "type": "uint256"
                }
              ],
              "internalType": "struct MessagingFee",
              "name": "fee",
              "type": "tuple"
            }
          ],
          "internalType": "struct MessagingReceipt",
          "name": "receipt",
          "type": "tuple"
        }
      ],
      "stateMutability": "payable",
      "type": "function"
    },
    {
      "inputs": [],
      "name": "renounceOwnership",
      "outputs": [],
      "stateMutability": "nonpayable",
      "type": "function"
    },
    {
      "inputs": [
        {
          "internalType": "address",
          "name": "_delegate",
          "type": "address"
        }
      ],
      "name": "setDelegate",
      "outputs": [],
      "stateMutability": "nonpayable",
      "type": "function"
    },
    {
      "inputs": [
        {
          "components": [
            {
              "internalType": "uint32",
              "name": "eid",
              "type": "uint32"
            },
            {
              "internalType": "uint16",
              "name": "msgType",
              "type": "uint16"
            },
            {
              "internalType": "bytes",
              "name": "options",
              "type": "bytes"
            }
          ],
          "internalType": "struct EnforcedOptionParam[]",
          "name": "_enforcedOptions",
          "type": "tuple[]"
        }
      ],
      "name": "setEnforcedOptions",
      "outputs": [],
      "stateMutability": "nonpayable",
      "type": "function"
    },
    {
      "inputs": [
        {
          "internalType": "uint32",
          "name": "_eid",
          "type": "uint32"
        },
        {
          "internalType": "bytes32",
          "name": "_peer",
          "type": "bytes32"
        }
      ],
      "name": "setPeer",
      "outputs": [],
      "stateMutability": "nonpayable",
      "type": "function"
    },
    {
      "inputs": [
        {
          "internalType": "uint32",
          "name": "_channelId",
          "type": "uint32"
        },
        {
          "internalType": "bool",
          "name": "_active",
          "type": "bool"
        }
      ],
      "name": "setReadChannel",
      "outputs": [],
      "stateMutability": "nonpayable",
      "type": "function"
    },
    {
      "inputs": [
        {
          "internalType": "uint256",
          "name": "",
          "type": "uint256"
        }
      ],
      "name": "targetEids",
      "outputs": [
        {
          "internalType": "uint32",
          "name": "",
          "type": "uint32"
        }
      ],
      "stateMutability": "view",
      "type": "function"
    },
    {
      "inputs": [
        {
          "internalType": "address",
          "name": "newOwner",
          "type": "address"
        }
      ],
      "name": "transferOwnership",
      "outputs": [],
      "stateMutability": "nonpayable",
      "type": "function"
    },
    {
      "stateMutability": "payable",
      "type": "receive"
    }
  ],
  "transactionHash": "0x0cfed32246adcfc62db3639ead937fe91ed0413ac63a3ffaacfabc992b5f01a9",
  "args": [
    "0x6EDCE65403992e310A62460808c4b910D972f10f",
    4294967295
  ],
  "numDeployments": 2,
  "solcInputHash": "ec6227944b5f7ae266bb5b100c30513a",
  "bytecode": "0x60a06040523480156200001157600080fd5b5060405162002e4638038062002e46833981016040819052620000349162000476565b81338181818180806200006157604051631e4fbdf760e01b81526000600482015260240160405180910390fd5b6200006c81620003c5565b506001600160a01b0380831660805281166200009b57604051632d618d8160e21b815260040160405180910390fd5b60805160405163ca5eb5e160e01b81526001600160a01b0383811660048301529091169063ca5eb5e190602401600060405180830381600087803b158015620000e357600080fd5b505af1158015620000f8573d6000803e3d6000fd5b5050505050505050505060006040518060600160405280600561ffff1681526020017335eb2aba1d06cfeb20729142e61005f418f8459e6001600160a01b03168152602001619d2763ffffffff16815250905060006040518060600160405280600561ffff16815260200173c5a12e8a9236a66c66f1a0deb298e51285b1f82f6001600160a01b03168152602001619d3563ffffffff1681525090508160056000619d2763ffffffff1663ffffffff16815260200190815260200160002060008201518160000160006101000a81548161ffff021916908361ffff16021790555060208201518160000160026101000a8154816001600160a01b0302191690836001600160a01b0316021790555060408201518160000160166101000a81548163ffffffff021916908363ffffffff1602179055509050506004619d2790806001815401808255809150506001900390600052602060002090600891828204019190066004029091909190916101000a81548163ffffffff021916908363ffffffff1602179055508060056000619d3563ffffffff1663ffffffff16815260200190815260200160002060008201518160000160006101000a81548161ffff021916908361ffff16021790555060208201518160000160026101000a8154816001600160a01b0302191690836001600160a01b0316021790555060408201518160000160166101000a81548163ffffffff021916908363ffffffff1602179055509050506004619d3590806001815401808255809150506001900390600052602060002090600891828204019190066004029091909190916101000a81548163ffffffff021916908363ffffffff16021790555082600360006101000a81548163ffffffff021916908363ffffffff160217905550620003bb600360009054906101000a900463ffffffff16620003b5306200041560201b60201c565b62000421565b50505050620004c8565b600080546001600160a01b038381166001600160a01b0319831681178455604051919092169283917f8be0079c531659141344cd1fd0a4f28419497f9722a3daafe3b4186f6b6457e09190a35050565b6001600160a01b031690565b63ffffffff8216600081815260016020908152604091829020849055815192835282018390527f238399d427b947898edb290f5ff0f9109849b1c3ba196a42e35f00c50a54b98b910160405180910390a15050565b600080604083850312156200048a57600080fd5b82516001600160a01b0381168114620004a257600080fd5b602084015190925063ffffffff81168114620004bd57600080fd5b809150509250929050565b60805161293162000515600039600081816102ea0152818161062201528181610a2301528181610cde0152818161127e015281816114dd015281816116c4015261177d01526129316000f3fe6080604052600436106101bb5760003560e01c8063a3e26f1a116100ec578063dba65e481161008a578063f0a9e48111610064578063f0a9e481146105aa578063f2fde38b146105ca578063fa711415146105ea578063ff7bd03d1461060057600080fd5b8063dba65e481461054a578063e60c287c1461056a578063eba1cf081461058a57600080fd5b8063bb0b6a53116100c6578063bb0b6a53146104af578063bc70b354146104ea578063ca5eb5e11461050a578063dad41cae1461052a57600080fd5b8063a3e26f1a1461044d578063b10c75441461047a578063b98bd0701461048f57600080fd5b80635e280f11116101595780637d25a05e116101335780637d25a05e146103495780637ee740581461038157806382413eac146103ff5780638da5cb5b1461042f57600080fd5b80635e280f11146102d8578063715018a61461030c578063765a01e41461032157600080fd5b80631b9f4e03116101955780631b9f4e03146102435780633400288b1461026e5780633859d9371461028e5780635535d461146102ab57600080fd5b806301ca5656146101c757806313137d651461020c57806317442b701461022157600080fd5b366101c257005b600080fd5b3480156101d357600080fd5b506101ef7335eb2aba1d06cfeb20729142e61005f418f8459e81565b6040516001600160a01b0390911681526020015b60405180910390f35b61021f61021a3660046119f0565b610620565b005b34801561022d57600080fd5b5060408051600181526002602082015201610203565b34801561024f57600080fd5b50610259619d2781565b60405163ffffffff9091168152602001610203565b34801561027a57600080fd5b5061021f610289366004611aa1565b6106e0565b34801561029a57600080fd5b506003546102599063ffffffff1681565b3480156102b757600080fd5b506102cb6102c6366004611ae4565b6106f6565b6040516102039190611b69565b3480156102e457600080fd5b506101ef7f000000000000000000000000000000000000000000000000000000000000000081565b34801561031857600080fd5b5061021f61079b565b34801561032d57600080fd5b506101ef73c5a12e8a9236a66c66f1a0deb298e51285b1f82f81565b34801561035557600080fd5b50610369610364366004611aa1565b6107af565b6040516001600160401b039091168152602001610203565b34801561038d57600080fd5b506103d161039c366004611b83565b60056020526000908152604090205461ffff8116906201000081046001600160a01b031690600160b01b900463ffffffff1683565b6040805161ffff90941684526001600160a01b03909216602084015263ffffffff1690820152606001610203565b34801561040b57600080fd5b5061041f61041a366004611ba0565b6107b8565b6040519015158152602001610203565b34801561043b57600080fd5b506000546001600160a01b03166101ef565b34801561045957600080fd5b5061046d610468366004611c16565b6107cd565b6040516102039190611c69565b34801561048657600080fd5b506102cb610818565b34801561049b57600080fd5b5061021f6104aa366004611cc4565b610af5565b3480156104bb57600080fd5b506104dc6104ca366004611b83565b60016020526000908152604090205481565b604051908152602001610203565b3480156104f657600080fd5b506102cb610505366004611d05565b610b0f565b34801561051657600080fd5b5061021f610525366004611d67565b610cb7565b34801561053657600080fd5b50610259610545366004611d84565b610d3d565b61055d610558366004611d9d565b610d77565b6040516102039190611dd2565b34801561057657600080fd5b506102cb610585366004611e14565b610dc3565b34801561059657600080fd5b506102cb6105a5366004611e73565b610e57565b3480156105b657600080fd5b5061021f6105c5366004611ed2565b611048565b3480156105d657600080fd5b5061021f6105e5366004611d67565b611083565b3480156105f657600080fd5b50610259619d3581565b34801561060c57600080fd5b5061041f61061b366004611efe565b6110c1565b7f00000000000000000000000000000000000000000000000000000000000000006001600160a01b03163314610670576040516391ac5e4f60e01b81523360048201526024015b60405180910390fd5b6020870180359061068a90610685908a611b83565b6110f7565b146106c85761069c6020880188611b83565b60405163309afaf360e21b815263ffffffff909116600482015260208801356024820152604401610667565b6106d787878787878787611133565b50505050505050565b6106e8611196565b6106f282826111c3565b5050565b60026020908152600092835260408084209091529082529020805461071a90611f1a565b80601f016020809104026020016040519081016040528092919081815260200182805461074690611f1a565b80156107935780601f1061076857610100808354040283529160200191610793565b820191906000526020600020905b81548152906001019060200180831161077657829003601f168201915b505050505081565b6107a3611196565b6107ad6000611218565b565b60005b92915050565b6001600160a01b03811630145b949350505050565b604080518082019091526000808252602082015260006107eb610818565b60035490915061080f9063ffffffff16826108098260018a8a610b0f565b86611268565b95945050505050565b6004546060906000816001600160401b0381111561083857610838611f4e565b6040519080825280602002602001820160405280156108a157816020015b6040805160e0810182526000808252602080830182905292820181905260608083018290526080830182905260a083019190915260c082015282526000199092019101816108565790505b5090506000805b83811015610a09576000600482815481106108c5576108c5611f64565b6000918252602080832060088304015460079092166004026101000a90910463ffffffff9081168084526005835260408085208151606081018352905461ffff811682526201000081046001600160a01b031682870152600160b01b90049093168382015280516024810185905260448082019690965281518082039096018652606401815292840180516001600160e01b031663b7d0628b60e01b179052825160e08101909352935091908061097d876001611f90565b61ffff1681526020018463ffffffff168152602001600015158152602001426001600160401b03168152602001836000015161ffff16815260200183602001516001600160a01b03168152602001828152508686815181106109e1576109e1611f64565b602002602001018190525084806109f790611fa3565b955050600190930192506108a8915050565b5060006040518060c00160405280600260ff1681526020017f00000000000000000000000000000000000000000000000000000000000000006001600160a01b031663416ecebf6040518163ffffffff1660e01b8152600401602060405180830381865afa158015610a7f573d6000803e3d6000fd5b505050506040513d601f19601f82011682018060405250810190610aa39190611fbc565b63ffffffff168152602001600015158152602001426001600160401b03168152602001600f61ffff168152602001306001600160a01b03168152509050610aec60008483611340565b94505050505090565b610afd611196565b6106f2610b0a8284612054565b61136c565b63ffffffff8416600090815260026020908152604080832061ffff87168452909152812080546060929190610b4390611f1a565b80601f0160208091040260200160405190810160405280929190818152602001828054610b6f90611f1a565b8015610bbc5780601f10610b9157610100808354040283529160200191610bbc565b820191906000526020600020905b815481529060010190602001808311610b9f57829003601f168201915b505050505090508051600003610c0c5783838080601f0160208091040260200160405190810160405280939291908181526020018383808284376000920191909152509294506107c59350505050565b6000839003610c1c5790506107c5565b60028310610c9a57610c6384848080601f01602080910402602001604051908101604052809392919081815260200183838082843760009201919091525061147e92505050565b80610c718460028188612178565b604051602001610c83939291906121a2565b6040516020818303038152906040529150506107c5565b8383604051639a6d49cd60e01b81526004016106679291906121ca565b610cbf611196565b60405163ca5eb5e160e01b81526001600160a01b0382811660048301527f0000000000000000000000000000000000000000000000000000000000000000169063ca5eb5e190602401600060405180830381600087803b158015610d2257600080fd5b505af1158015610d36573d6000803e3d6000fd5b5050505050565b60048181548110610d4d57600080fd5b9060005260206000209060089182820401919006600402915054906101000a900463ffffffff1681565b610d7f611934565b6000610d89610818565b6003549091506107c59063ffffffff1682610da78260018989610b0f565b60405180604001604052803481526020016000815250336114aa565b60606040821015610e165760405162461bcd60e51b815260206004820152601760248201527f496e76616c696420726573706f6e7365206c656e6774680000000000000000006044820152606401610667565b600080610e258486018661220a565b6040805160ff938416602082015291909216818301528151808203830181526060909101909152979650505050505050565b606060028214610ea95760405162461bcd60e51b815260206004820181905260248201527f457870656374656420726573706f6e7365732066726f6d203220636861696e736044820152606401610667565b6040805160028082526060820190925260009182918291816020015b6060815260200190600190039081610ec557905050905060005b600281101561100557600080888884818110610efd57610efd611f64565b9050602002810190610f0f9190612234565b810190610f1c919061220a565b9092509050610f2e60ff831687611f90565b9550610f3d60ff821686611f90565b604080516002808252606082018352929750919060208301908036833701905050848481518110610f7057610f70611f64565b602002602001018190525081848481518110610f8e57610f8e611f64565b6020026020010151600081518110610fa857610fa8611f64565b602002602001019060ff16908160ff168152505080848481518110610fcf57610fcf611f64565b6020026020010151600181518110610fe957610fe9611f64565b60ff909216602092830291909101909101525050600101610edf565b5060006110128385611f90565b90508084848460405160200161102b949392919061227a565b604051602081830303815290604052945050505050949350505050565b611050611196565b61106682826110605760006111c3565b306111c3565b506003805463ffffffff191663ffffffff92909216919091179055565b61108b611196565b6001600160a01b0381166110b557604051631e4fbdf760e01b815260006004820152602401610667565b6110be81611218565b50565b60006020820180359060019083906110d99086611b83565b63ffffffff1681526020810191909152604001600020541492915050565b63ffffffff8116600090815260016020526040812054806107b25760405163f6ff4fb760e01b815263ffffffff84166004820152602401610667565b6000808080611144888a018a61231d565b93509350935093507feb91762e9bd9be34188e2c66370d02dc731117baaef98b56dfc2463724c95fc984848484604051611181949392919061227a565b60405180910390a15050505050505050505050565b6000546001600160a01b031633146107ad5760405163118cdaa760e01b8152336004820152602401610667565b63ffffffff8216600081815260016020908152604091829020849055815192835282018390527f238399d427b947898edb290f5ff0f9109849b1c3ba196a42e35f00c50a54b98b910160405180910390a15050565b600080546001600160a01b038381166001600160a01b0319831681178455604051919092169283917f8be0079c531659141344cd1fd0a4f28419497f9722a3daafe3b4186f6b6457e09190a35050565b60408051808201909152600080825260208201527f00000000000000000000000000000000000000000000000000000000000000006001600160a01b031663ddc28c586040518060a001604052808863ffffffff1681526020016112cb896110f7565b8152602001878152602001868152602001851515815250306040518363ffffffff1660e01b815260040161130092919061244f565b6040805180830381865afa15801561131c573d6000803e3d6000fd5b505050506040513d601f19601f8201168201806040525081019061080f9190612516565b6060600061134e85856115b5565b9050826020015163ffffffff166000146107c55761080f8184611645565b60005b81518110156114435761139e82828151811061138d5761138d611f64565b60200260200101516040015161147e565b8181815181106113b0576113b0611f64565b602002602001015160400151600260008484815181106113d2576113d2611f64565b60200260200101516000015163ffffffff1663ffffffff168152602001908152602001600020600084848151811061140c5761140c611f64565b60200260200101516020015161ffff1661ffff168152602001908152602001600020908161143a9190612583565b5060010161136f565b507fbe4864a8e820971c0247f5992e2da559595f7bf076a21cb5928d443d2a13b674816040516114739190612642565b60405180910390a150565b600281015161ffff81166003146106f25781604051639a6d49cd60e01b81526004016106679190611b69565b6114b2611934565b60006114c18460000151611698565b6020850151909150156114db576114db84602001516116c0565b7f00000000000000000000000000000000000000000000000000000000000000006001600160a01b0316632637a450826040518060a001604052808b63ffffffff16815260200161152b8c6110f7565b81526020018a815260200189815260200160008960200151111515815250866040518463ffffffff1660e01b815260040161156792919061244f565b60806040518083038185885af1158015611585573d6000803e3d6000fd5b50505050506040513d601f19601f820116820180604052508101906115aa91906126cd565b979650505050505050565b606060006001846115c685516117a2565b6040516001600160f01b031960f094851b8116602083015292841b83166022820152921b166024820152602601604051602081830303815290604052905060005b835181101561163d576116338285838151811061162657611626611f64565b60200260200101516117d1565b9150600101611607565b509392505050565b606082600180846000015185602001518660400151876060015188608001518960a0015160405160200161168199989796959493929190612723565b604051602081830303815290604052905092915050565b60008134146116bc576040516304fb820960e51b8152346004820152602401610667565b5090565b60007f00000000000000000000000000000000000000000000000000000000000000006001600160a01b031663e4fe1d946040518163ffffffff1660e01b8152600401602060405180830381865afa158015611720573d6000803e3d6000fd5b505050506040513d601f19601f8201168201806040525081019061174491906127e9565b90506001600160a01b03811661176d576040516329b99a9560e11b815260040160405180910390fd5b6106f26001600160a01b038216337f000000000000000000000000000000000000000000000000000000000000000085611863565b600061ffff8211156116bc576040516306dfcc6560e41b81526010600482015260248101839052604401610667565b60606000836001846000015160016117f98760c001515160236117f49190611f90565b6117a2565b60208089015160405161181197969594939201612806565b60408051601f19818403018152828252908501516060860151608087015160a088015160c089015194965061184b95879590602001612879565b60405160208183030381529060405291505092915050565b604080516001600160a01b0385811660248301528416604482015260648082018490528251808303909101815260849091019091526020810180516001600160e01b03166323b872dd60e01b1790526118bd9085906118c3565b50505050565b600080602060008451602086016000885af1806118e6576040513d6000823e3d81fd5b50506000513d915081156118fe57806001141561190b565b6001600160a01b0384163b155b156118bd57604051635274afe760e01b81526001600160a01b0385166004820152602401610667565b60405180606001604052806000801916815260200160006001600160401b03168152602001611976604051806040016040528060008152602001600081525090565b905290565b60006060828403121561198d57600080fd5b50919050565b60008083601f8401126119a557600080fd5b5081356001600160401b038111156119bc57600080fd5b6020830191508360208285010111156119d457600080fd5b9250929050565b6001600160a01b03811681146110be57600080fd5b600080600080600080600060e0888a031215611a0b57600080fd5b611a15898961197b565b96506060880135955060808801356001600160401b0380821115611a3857600080fd5b611a448b838c01611993565b909750955060a08a01359150611a59826119db565b90935060c08901359080821115611a6f57600080fd5b50611a7c8a828b01611993565b989b979a50959850939692959293505050565b63ffffffff811681146110be57600080fd5b60008060408385031215611ab457600080fd5b8235611abf81611a8f565b946020939093013593505050565b803561ffff81168114611adf57600080fd5b919050565b60008060408385031215611af757600080fd5b8235611b0281611a8f565b9150611b1060208401611acd565b90509250929050565b60005b83811015611b34578181015183820152602001611b1c565b50506000910152565b60008151808452611b55816020860160208601611b19565b601f01601f19169290920160200192915050565b602081526000611b7c6020830184611b3d565b9392505050565b600060208284031215611b9557600080fd5b8135611b7c81611a8f565b60008060008060a08587031215611bb657600080fd5b611bc0868661197b565b935060608501356001600160401b03811115611bdb57600080fd5b611be787828801611993565b9094509250506080850135611bfb816119db565b939692955090935050565b80358015158114611adf57600080fd5b600080600060408486031215611c2b57600080fd5b83356001600160401b03811115611c4157600080fd5b611c4d86828701611993565b9094509250611c60905060208501611c06565b90509250925092565b8151815260208083015190820152604081016107b2565b60008083601f840112611c9257600080fd5b5081356001600160401b03811115611ca957600080fd5b6020830191508360208260051b85010111156119d457600080fd5b60008060208385031215611cd757600080fd5b82356001600160401b03811115611ced57600080fd5b611cf985828601611c80565b90969095509350505050565b60008060008060608587031215611d1b57600080fd5b8435611d2681611a8f565b9350611d3460208601611acd565b925060408501356001600160401b03811115611d4f57600080fd5b611d5b87828801611993565b95989497509550505050565b600060208284031215611d7957600080fd5b8135611b7c816119db565b600060208284031215611d9657600080fd5b5035919050565b60008060208385031215611db057600080fd5b82356001600160401b03811115611dc657600080fd5b611cf985828601611993565b6000608082019050825182526001600160401b0360208401511660208301526040830151611e0d604084018280518252602090810151910152565b5092915050565b60008060008060408587031215611e2a57600080fd5b84356001600160401b0380821115611e4157600080fd5b611e4d88838901611993565b90965094506020870135915080821115611e6657600080fd5b50611d5b87828801611993565b60008060008060408587031215611e8957600080fd5b84356001600160401b0380821115611ea057600080fd5b611eac88838901611993565b90965094506020870135915080821115611ec557600080fd5b50611d5b87828801611c80565b60008060408385031215611ee557600080fd5b8235611ef081611a8f565b9150611b1060208401611c06565b600060608284031215611f1057600080fd5b611b7c838361197b565b600181811c90821680611f2e57607f821691505b60208210810361198d57634e487b7160e01b600052602260045260246000fd5b634e487b7160e01b600052604160045260246000fd5b634e487b7160e01b600052603260045260246000fd5b634e487b7160e01b600052601160045260246000fd5b808201808211156107b2576107b2611f7a565b600060018201611fb557611fb5611f7a565b5060010190565b600060208284031215611fce57600080fd5b8151611b7c81611a8f565b604051606081016001600160401b0381118282101715611ffb57611ffb611f4e565b60405290565b604051601f8201601f191681016001600160401b038111828210171561202957612029611f4e565b604052919050565b60006001600160401b0382111561204a5761204a611f4e565b5060051b60200190565b600061206761206284612031565b612001565b80848252602080830192508560051b85013681111561208557600080fd5b855b8181101561216c5780356001600160401b03808211156120a75760008081fd5b8189019150606082360312156120bd5760008081fd5b6120c5611fd9565b82356120d081611a8f565b81526120dd838701611acd565b86820152604080840135838111156120f55760008081fd5b9390930192601f368186011261210b5760008081fd5b84358481111561211d5761211d611f4e565b61212e818301601f19168a01612001565b9450808552368982880101111561214757600091508182fd5b808987018a870137600090850189015250810191909152865250938201938201612087565b50919695505050505050565b6000808585111561218857600080fd5b8386111561219557600080fd5b5050820193919092039150565b600084516121b4818460208901611b19565b8201838582376000930192835250909392505050565b60208152816020820152818360408301376000818301604090810191909152601f909201601f19160101919050565b803560ff81168114611adf57600080fd5b6000806040838503121561221d57600080fd5b612226836121f9565b9150611b10602084016121f9565b6000808335601e1984360301811261224b57600080fd5b8301803591506001600160401b0382111561226557600080fd5b6020019150368190038213156119d457600080fd5b600060808201868352602086818501528560408501526080606085015281855180845260a08601915060a08160051b87010193508287016000805b8381101561230c57888703609f19018552825180518089529087019087890190845b818110156122f657835160ff16835292890192918901916001016122d7565b50909850505093850193918501916001016122b5565b50949b9a5050505050505050505050565b6000806000806080858703121561233357600080fd5b84359350602085013592506040850135915060608501356001600160401b038082111561235f57600080fd5b818701915087601f83011261237357600080fd5b6123806120628335612031565b82358082526020808301929160051b8501018a81111561239f57600080fd5b602085015b8181101561243d5784813511156123ba57600080fd5b803586018c603f8201126123cd57600080fd5b60208101356123de61206282612031565b81815260059190911b82016040019060208101908f8311156123ff57600080fd5b6040840193505b8284101561242857612417846121f9565b825260209384019390910190612406565b875250506020948501949190910190506123a4565b50508094505050505092959194509250565b6040815263ffffffff8351166040820152602083015160608201526000604084015160a0608084015261248560e0840182611b3d565b90506060850151603f198483030160a08501526124a28282611b3d565b60809690960151151560c08501525050506001600160a01b039190911660209091015290565b6000604082840312156124da57600080fd5b604051604081018181106001600160401b03821117156124fc576124fc611f4e565b604052825181526020928301519281019290925250919050565b60006040828403121561252857600080fd5b611b7c83836124c8565b601f82111561257e576000816000526020600020601f850160051c8101602086101561255b5750805b601f850160051c820191505b8181101561257a57828155600101612567565b5050505b505050565b81516001600160401b0381111561259c5761259c611f4e565b6125b0816125aa8454611f1a565b84612532565b602080601f8311600181146125e557600084156125cd5750858301515b600019600386901b1c1916600185901b17855561257a565b600085815260208120601f198616915b82811015612614578886015182559484019460019091019084016125f5565b50858210156126325787850151600019600388901b60f8161c191681555b5050505050600190811b01905550565b600060208083018184528085518083526040925060408601915060408160051b87010184880160005b838110156126bf57888303603f190185528151805163ffffffff1684528781015161ffff168885015286015160608785018190526126ab81860183611b3d565b96890196945050509086019060010161266b565b509098975050505050505050565b6000608082840312156126df57600080fd5b6126e7611fd9565b8251815260208301516001600160401b038116811461270557600080fd5b602082015261271784604085016124c8565b60408201529392505050565b60008a51612735818460208f01611b19565b60f88b811b6001600160f81b031990811692850192835260f08c901b6001600160f01b03191660018401528a821b16600383015260e089901b6001600160e01b0319166004830152871515901b60088201526127a0600982018760c01b6001600160c01b0319169052565b6127b9601182018660f01b6001600160f01b0319169052565b6127d7601382018560601b6bffffffffffffffffffffffff19169052565b6027019b9a5050505050505050505050565b6000602082840312156127fb57600080fd5b8151611b7c816119db565b60008751612818818460208c01611b19565b60f89790971b6001600160f81b0319169190960190815260f094851b6001600160f01b0319908116600183015293851b841660038201529190931b909116600582015260e09190911b6001600160e01b0319166007820152600b0192915050565b6000875161288b818460208c01611b19565b87151560f81b90830190815260c087901b6001600160c01b031916600182015260f086901b6001600160f01b0319166009820152606085901b6bffffffffffffffffffffffff1916600b82015283516128eb81601f840160208801611b19565b01601f019897505050505050505056fea2646970667358221220abd361b7aa66519568e980bdb1afe6b8d876b013a8dd2cc890b9c106a740f63264736f6c63430008160033",
  "devdoc": {
    "details": "Extends OAppRead and OAppOptionsType3 for cross-chain read and compute operations.",
    "errors": {
      "OwnableInvalidOwner(address)": [
        {
          "details": "The owner is not a valid owner account. (eg. `address(0)`)"
        }
      ],
      "OwnableUnauthorizedAccount(address)": [
        {
          "details": "The caller account is not authorized to perform an operation."
        }
      ],
      "SafeCastOverflowedUintDowncast(uint8,uint256)": [
        {
          "details": "Value doesn't fit in an uint of `bits` size."
        }
      ],
      "SafeERC20FailedOperation(address)": [
        {
          "details": "An operation with an ERC-20 token failed."
        }
      ]
    },
    "events": {
      "AggregatedGameState(uint256,uint256,uint256,uint8[][])": {
        "params": {
          "player1TotalZones": "Total zones for player 1 across all chains",
          "player2TotalZones": "Total zones for player 2 across all chains",
          "playerPerformance": "Array of player zone counts per chain",
          "totalZones": "Total zones across all chains"
        }
      }
    },
    "kind": "dev",
    "methods": {
      "allowInitializePath((uint32,bytes32,uint64))": {
        "details": "This indicates to the endpoint that the OApp has enabled msgs for this particular path to be received.This defaults to assuming if a peer has been set, its initialized. Can be overridden by the OApp if there is other logic to determine this.",
        "params": {
          "origin": "The origin information containing the source endpoint and sender address."
        },
        "returns": {
          "_0": "Whether the path has been initialized."
        }
      },
      "combineOptions(uint32,uint16,bytes)": {
        "details": "If there is an enforced lzReceive option: - {gasLimit: 200k, msg.value: 1 ether} AND a caller supplies a lzReceive option: {gasLimit: 100k, msg.value: 0.5 ether} - The resulting options will be {gasLimit: 300k, msg.value: 1.5 ether} when the message is executed on the remote lzReceive() function.This presence of duplicated options is handled off-chain in the verifier/executor.",
        "params": {
          "_eid": "The endpoint ID.",
          "_extraOptions": "Additional options passed by the caller.",
          "_msgType": "The OAPP message type."
        },
        "returns": {
          "_0": "options The combination of caller specified options AND enforced options."
        }
      },
      "constructor": {
        "params": {
          "_endpoint": "The LayerZero endpoint contract address.",
          "_readChannel": "The LayerZero read channel ID."
        }
      },
      "getCmd()": {
        "returns": {
          "_0": "cmd The encoded command to request game state data."
        }
      },
      "isComposeMsgSender((uint32,bytes32,uint64),bytes,address)": {
        "details": "_origin The origin information containing the source endpoint and sender address.  - srcEid: The source chain endpoint ID.  - sender: The sender address on the src chain.  - nonce: The nonce of the message._message The lzReceive payload.Applications can optionally choose to implement separate composeMsg senders that are NOT the bridging layer.The default sender IS the OAppReceiver implementer.",
        "params": {
          "_sender": "The sender address."
        },
        "returns": {
          "_0": "isSender Is a valid sender."
        }
      },
      "lzMap(bytes,bytes)": {
        "params": {
          "_response": "The response from the read request."
        },
        "returns": {
          "_0": "Encoded game state data."
        }
      },
      "lzReceive((uint32,bytes32,uint64),bytes32,bytes,address,bytes)": {
        "details": "Entry point for receiving messages or packets from the endpoint.Entry point for receiving msg/packet from the LayerZero endpoint.",
        "params": {
          "_executor": "The address of the executor for the received message.",
          "_extraData": "Additional arbitrary data provided by the corresponding executor.",
          "_guid": "The unique identifier for the received LayerZero message.",
          "_message": "The payload of the received message.",
          "_origin": "The origin information containing the source endpoint and sender address.  - srcEid: The source chain endpoint ID.  - sender: The sender address on the src chain.  - nonce: The nonce of the message."
        }
      },
      "lzReduce(bytes,bytes[])": {
        "params": {
          "_responses": "Array of mapped responses containing game state data."
        },
        "returns": {
          "_0": "Encoded aggregated game state."
        }
      },
      "nextNonce(uint32,bytes32)": {
        "details": "_srcEid The source endpoint ID._sender The sender address.The path nonce starts from 1. If 0 is returned it means that there is NO nonce ordered enforcement.Is required by the off-chain executor to determine the OApp expects msg execution is ordered.This is also enforced by the OApp.By default this is NOT enabled. ie. nextNonce is hardcoded to return 0.",
        "returns": {
          "nonce": "The next nonce."
        }
      },
      "oAppVersion()": {
        "returns": {
          "receiverVersion": "The version of the OAppReceiver.sol implementation.",
          "senderVersion": "The version of the OAppSender.sol implementation."
        }
      },
      "owner()": {
        "details": "Returns the address of the current owner."
      },
      "quoteGameState(bytes,bool)": {
        "params": {
          "_extraOptions": "Additional messaging options.",
          "_payInLzToken": "Boolean flag indicating whether to pay in LayerZero tokens."
        },
        "returns": {
          "fee": "The estimated messaging fee."
        }
      },
      "readGameState(bytes)": {
        "params": {
          "_extraOptions": "Additional messaging options, including gas and fee settings."
        },
        "returns": {
          "receipt": "The LayerZero messaging receipt for the request."
        }
      },
      "renounceOwnership()": {
        "details": "Leaves the contract without owner. It will not be possible to call `onlyOwner` functions. Can only be called by the current owner. NOTE: Renouncing ownership will leave the contract without an owner, thereby disabling any functionality that is only available to the owner."
      },
      "setDelegate(address)": {
        "details": "Only the owner/admin of the OApp can call this function.Provides the ability for a delegate to set configs, on behalf of the OApp, directly on the Endpoint contract.",
        "params": {
          "_delegate": "The address of the delegate to be set."
        }
      },
      "setEnforcedOptions((uint32,uint16,bytes)[])": {
        "details": "Sets the enforced options for specific endpoint and message type combinations.Only the owner/admin of the OApp can call this function.Provides a way for the OApp to enforce things like paying for PreCrime, AND/OR minimum dst lzReceive gas amounts etc.These enforced options can vary as the potential options/execution on the remote may differ as per the msgType. eg. Amount of lzReceive() gas necessary to deliver a lzCompose() message adds overhead you dont want to pay if you are only making a standard LayerZero message ie. lzReceive() WITHOUT sendCompose().",
        "params": {
          "_enforcedOptions": "An array of EnforcedOptionParam structures specifying enforced options."
        }
      },
      "setPeer(uint32,bytes32)": {
        "details": "Only the owner/admin of the OApp can call this function.Indicates that the peer is trusted to send LayerZero messages to this OApp.Set this to bytes32(0) to remove the peer address.Peer is a bytes32 to accommodate non-evm chains.",
        "params": {
          "_eid": "The endpoint ID.",
          "_peer": "The address of the peer to be associated with the corresponding endpoint."
        }
      },
      "setReadChannel(uint32,bool)": {
        "params": {
          "_active": "Flag to activate or deactivate the channel.",
          "_channelId": "The channel ID to set."
        }
      },
      "transferOwnership(address)": {
        "details": "Transfers ownership of the contract to a new account (`newOwner`). Can only be called by the current owner."
      }
    },
    "title": "GameStateReader",
    "version": 1
  },
  "userdoc": {
    "events": {
      "AggregatedGameState(uint256,uint256,uint256,uint8[][])": {
        "notice": "Emitted when the aggregated game state is computed and received."
      }
    },
    "kind": "user",
    "methods": {
      "READ_CHANNEL()": {
        "notice": "LayerZero read channel ID."
      },
      "allowInitializePath((uint32,bytes32,uint64))": {
        "notice": "Checks if the path initialization is allowed based on the provided origin."
      },
      "chainConfigs(uint32)": {
        "notice": "Mapping to store chain configurations indexed by target chain ID (targetEid)."
      },
      "combineOptions(uint32,uint16,bytes)": {
        "notice": "Combines options for a given endpoint and message type."
      },
      "constructor": {
        "notice": "Constructor to initialize the GameStateReader contract with hardcoded chain configurations."
      },
      "endpoint()": {
        "notice": "Retrieves the LayerZero endpoint associated with the OApp."
      },
      "getCmd()": {
        "notice": "Constructs a command to query the game state from MyONFT721ComposerMock contracts on all configured chains."
      },
      "isComposeMsgSender((uint32,bytes32,uint64),bytes,address)": {
        "notice": "Indicates whether an address is an approved composeMsg sender to the Endpoint."
      },
      "lzMap(bytes,bytes)": {
        "notice": "Processes individual game state responses, encoding the result."
      },
      "lzReduce(bytes,bytes[])": {
        "notice": "Aggregates individual game state responses to compute totals."
      },
      "nextNonce(uint32,bytes32)": {
        "notice": "Retrieves the next nonce for a given source endpoint and sender address."
      },
      "oAppVersion()": {
        "notice": "Retrieves the OApp version information."
      },
      "peers(uint32)": {
        "notice": "Retrieves the peer (OApp) associated with a corresponding endpoint."
      },
      "quoteGameState(bytes,bool)": {
        "notice": "Quotes the estimated messaging fee for querying game state from MyONFT721ComposerMock contracts."
      },
      "readGameState(bytes)": {
        "notice": "Sends a read request to LayerZero, querying game state from MyONFT721ComposerMock contracts on configured chains."
      },
      "setDelegate(address)": {
        "notice": "Sets the delegate address for the OApp."
      },
      "setPeer(uint32,bytes32)": {
        "notice": "Sets the peer address (OApp instance) for a corresponding endpoint."
      },
      "setReadChannel(uint32,bool)": {
        "notice": "Sets the LayerZero read channel, enabling or disabling it based on `_active`."
      },
      "targetEids(uint256)": {
        "notice": "Array to store all active targetEids for iteration."
      }
    },
    "notice": "Contract to read game state from MyONFT721ComposerMock contracts on multiple chains using LayerZero lzRead.",
    "version": 1
  },
  "storageLayout": {
    "storage": [
      {
        "astId": 2625,
        "contract": "contracts/UniStar.sol:UniStar",
        "label": "_owner",
        "offset": 0,
        "slot": "0",
        "type": "t_address"
      },
      {
        "astId": 938,
        "contract": "contracts/UniStar.sol:UniStar",
        "label": "peers",
        "offset": 0,
        "slot": "1",
        "type": "t_mapping(t_uint32,t_bytes32)"
      },
      {
        "astId": 1582,
        "contract": "contracts/UniStar.sol:UniStar",
        "label": "enforcedOptions",
        "offset": 0,
        "slot": "2",
        "type": "t_mapping(t_uint32,t_mapping(t_uint16,t_bytes_storage))"
      },
      {
        "astId": 5247,
        "contract": "contracts/UniStar.sol:UniStar",
        "label": "READ_CHANNEL",
        "offset": 0,
        "slot": "3",
        "type": "t_uint32"
      },
      {
        "astId": 5259,
        "contract": "contracts/UniStar.sol:UniStar",
        "label": "targetEids",
        "offset": 0,
        "slot": "4",
        "type": "t_array(t_uint32)dyn_storage"
      },
      {
        "astId": 5265,
        "contract": "contracts/UniStar.sol:UniStar",
        "label": "chainConfigs",
        "offset": 0,
        "slot": "5",
        "type": "t_mapping(t_uint32,t_struct(ChainConfig)5255_storage)"
      }
    ],
    "types": {
      "t_address": {
        "encoding": "inplace",
        "label": "address",
        "numberOfBytes": "20"
      },
      "t_array(t_uint32)dyn_storage": {
        "base": "t_uint32",
        "encoding": "dynamic_array",
        "label": "uint32[]",
        "numberOfBytes": "32"
      },
      "t_bytes32": {
        "encoding": "inplace",
        "label": "bytes32",
        "numberOfBytes": "32"
      },
      "t_bytes_storage": {
        "encoding": "bytes",
        "label": "bytes",
        "numberOfBytes": "32"
      },
      "t_mapping(t_uint16,t_bytes_storage)": {
        "encoding": "mapping",
        "key": "t_uint16",
        "label": "mapping(uint16 => bytes)",
        "numberOfBytes": "32",
        "value": "t_bytes_storage"
      },
      "t_mapping(t_uint32,t_bytes32)": {
        "encoding": "mapping",
        "key": "t_uint32",
        "label": "mapping(uint32 => bytes32)",
        "numberOfBytes": "32",
        "value": "t_bytes32"
      },
      "t_mapping(t_uint32,t_mapping(t_uint16,t_bytes_storage))": {
        "encoding": "mapping",
        "key": "t_uint32",
        "label": "mapping(uint32 => mapping(uint16 => bytes))",
        "numberOfBytes": "32",
        "value": "t_mapping(t_uint16,t_bytes_storage)"
      },
      "t_mapping(t_uint32,t_struct(ChainConfig)5255_storage)": {
        "encoding": "mapping",
        "key": "t_uint32",
        "label": "mapping(uint32 => struct UniStar.ChainConfig)",
        "numberOfBytes": "32",
        "value": "t_struct(ChainConfig)5255_storage"
      },
      "t_struct(ChainConfig)5255_storage": {
        "encoding": "inplace",
        "label": "struct UniStar.ChainConfig",
        "members": [
          {
            "astId": 5250,
            "contract": "contracts/UniStar.sol:UniStar",
            "label": "confirmations",
            "offset": 0,
            "slot": "0",
            "type": "t_uint16"
          },
          {
            "astId": 5252,
            "contract": "contracts/UniStar.sol:UniStar",
            "label": "composerAddress",
            "offset": 2,
            "slot": "0",
            "type": "t_address"
          },
          {
            "astId": 5254,
            "contract": "contracts/UniStar.sol:UniStar",
            "label": "chainEid",
            "offset": 22,
            "slot": "0",
            "type": "t_uint32"
          }
        ],
        "numberOfBytes": "32"
      },
      "t_uint16": {
        "encoding": "inplace",
        "label": "uint16",
        "numberOfBytes": "2"
      },
      "t_uint32": {
        "encoding": "inplace",
        "label": "uint32",
        "numberOfBytes": "4"
      }
    }
  }
}